{
	"data": {
		"bytecode": {
			"linkReferences": {},
			"object": "608060405264e8d4a5100060075534801562000019575f80fd5b506040518060400160405280600781526020017f596f75724e4654000000000000000000000000000000000000000000000000008152506040518060400160405280600481526020017f594e465400000000000000000000000000000000000000000000000000000000815250815f908162000096919062000315565b508060019081620000a8919062000315565b505050620003f9565b5f81519050919050565b7f4e487b71000000000000000000000000000000000000000000000000000000005f52604160045260245ffd5b7f4e487b71000000000000000000000000000000000000000000000000000000005f52602260045260245ffd5b5f60028204905060018216806200012d57607f821691505b602082108103620001435762000142620000e8565b5b50919050565b5f819050815f5260205f209050919050565b5f6020601f8301049050919050565b5f82821b905092915050565b5f60088302620001a77fffffffffffffffffffffffffffffffffffffffffffffffffffffffffffffffff826200016a565b620001b386836200016a565b95508019841693508086168417925050509392505050565b5f819050919050565b5f819050919050565b5f620001fd620001f7620001f184620001cb565b620001d4565b620001cb565b9050919050565b5f819050919050565b6200021883620001dd565b62000230620002278262000204565b84845462000176565b825550505050565b5f90565b6200024662000238565b620002538184846200020d565b505050565b5b818110156200027a576200026e5f826200023c565b60018101905062000259565b5050565b601f821115620002c957620002938162000149565b6200029e846200015b565b81016020851015620002ae578190505b620002c6620002bd856200015b565b83018262000258565b50505b505050565b5f82821c905092915050565b5f620002eb5f1984600802620002ce565b1980831691505092915050565b5f620003058383620002da565b9150826002028217905092915050565b6200032082620000b1565b67ffffffffffffffff8111156200033c576200033b620000bb565b5b62000348825462000115565b620003558282856200027e565b5f60209050601f8311600181146200038b575f841562000376578287015190505b620003828582620002f8565b865550620003f1565b601f1984166200039b8662000149565b5f5b82811015620003c4578489015182556001820191506020850194506020810190506200039d565b86831015620003e45784890151620003e0601f891682620002da565b8355505b6001600288020188555050505b505050505050565b611f7a80620004075f395ff3fe6080604052600436106100f2575f3560e01c806370a0823111610089578063b88d4fde11610058578063b88d4fde1461030e578063c78f19f914610336578063c87b56dd14610360578063e985e9c51461039c576100f2565b806370a082311461025657806375794a3c1461029257806395d89b41146102bc578063a22cb465146102e6576100f2565b80631249c58b116100c55780631249c58b146101c057806323b872dd146101ca57806342842e0e146101f25780636352211e1461021a576100f2565b806301ffc9a7146100f657806306fdde0314610132578063081812fc1461015c578063095ea7b314610198575b5f80fd5b348015610101575f80fd5b5061011c6004803603810190610117919061172f565b6103d8565b6040516101299190611774565b60405180910390f35b34801561013d575f80fd5b506101466104b9565b6040516101539190611817565b60405180910390f35b348015610167575f80fd5b50610182600480360381019061017d919061186a565b610548565b60405161018f91906118d4565b60405180910390f35b3480156101a3575f80fd5b506101be60048036038101906101b99190611917565b610563565b005b6101c8610579565b005b3480156101d5575f80fd5b506101f060048036038101906101eb9190611955565b6105e3565b005b3480156101fd575f80fd5b5061021860048036038101906102139190611955565b6106e2565b005b348015610225575f80fd5b50610240600480360381019061023b919061186a565b610701565b60405161024d91906118d4565b60405180910390f35b348015610261575f80fd5b5061027c600480360381019061027791906119a5565b610712565b60405161028991906119df565b60405180910390f35b34801561029d575f80fd5b506102a66107c8565b6040516102b391906119df565b60405180910390f35b3480156102c7575f80fd5b506102d06107ce565b6040516102dd9190611817565b60405180910390f35b3480156102f1575f80fd5b5061030c60048036038101906103079190611a22565b61085e565b005b348015610319575f80fd5b50610334600480360381019061032f9190611b8c565b610874565b005b348015610341575f80fd5b5061034a610891565b60405161035791906119df565b60405180910390f35b34801561036b575f80fd5b506103866004803603810190610381919061186a565b610897565b6040516103939190611817565b60405180910390f35b3480156103a7575f80fd5b506103c260048036038101906103bd9190611c0c565b6108fd565b6040516103cf9190611774565b60405180910390f35b5f7f80ac58cd000000000000000000000000000000000000000000000000000000007bffffffffffffffffffffffffffffffffffffffffffffffffffffffff1916827bffffffffffffffffffffffffffffffffffffffffffffffffffffffff191614806104a257507f5b5e139f000000000000000000000000000000000000000000000000000000007bffffffffffffffffffffffffffffffffffffffffffffffffffffffff1916827bffffffffffffffffffffffffffffffffffffffffffffffffffffffff1916145b806104b257506104b18261098b565b5b9050919050565b60605f80546104c790611c77565b80601f01602080910402602001604051908101604052809291908181526020018280546104f390611c77565b801561053e5780601f106105155761010080835404028352916020019161053e565b820191905f5260205f20905b81548152906001019060200180831161052157829003601f168201915b5050505050905090565b5f610552826109f4565b5061055c82610a7a565b9050919050565b6105758282610570610ab3565b610aba565b5050565b6007543410156105be576040517f08c379a00000000000000000000000000000000000000000000000000000000081526004016105b590611cf1565b60405180910390fd5b6105ca33600654610acc565b60065f8154809291906105dc90611d3c565b9190505550565b5f73ffffffffffffffffffffffffffffffffffffffff168273ffffffffffffffffffffffffffffffffffffffff1603610653575f6040517f64a0ae9200000000000000000000000000000000000000000000000000000000815260040161064a91906118d4565b60405180910390fd5b5f6106668383610661610ab3565b610ae9565b90508373ffffffffffffffffffffffffffffffffffffffff168173ffffffffffffffffffffffffffffffffffffffff16146106dc578382826040517f64283d7b0000000000000000000000000000000000000000000000000000000081526004016106d393929190611d83565b60405180910390fd5b50505050565b6106fc83838360405180602001604052805f815250610874565b505050565b5f61070b826109f4565b9050919050565b5f8073ffffffffffffffffffffffffffffffffffffffff168273ffffffffffffffffffffffffffffffffffffffff1603610783575f6040517f89c62b6400000000000000000000000000000000000000000000000000000000815260040161077a91906118d4565b60405180910390fd5b60035f8373ffffffffffffffffffffffffffffffffffffffff1673ffffffffffffffffffffffffffffffffffffffff1681526020019081526020015f20549050919050565b60065481565b6060600180546107dd90611c77565b80601f016020809104026020016040519081016040528092919081815260200182805461080990611c77565b80156108545780601f1061082b57610100808354040283529160200191610854565b820191905f5260205f20905b81548152906001019060200180831161083757829003601f168201915b5050505050905090565b610870610869610ab3565b8383610cf4565b5050565b61087f8484846105e3565b61088b84848484610e5d565b50505050565b60075481565b60606108a2826109f4565b505f6108ac61100f565b90505f8151116108ca5760405180602001604052805f8152506108f5565b806108d484611025565b6040516020016108e5929190611df2565b6040516020818303038152906040525b915050919050565b5f60055f8473ffffffffffffffffffffffffffffffffffffffff1673ffffffffffffffffffffffffffffffffffffffff1681526020019081526020015f205f8373ffffffffffffffffffffffffffffffffffffffff1673ffffffffffffffffffffffffffffffffffffffff1681526020019081526020015f205f9054906101000a900460ff16905092915050565b5f7f01ffc9a7000000000000000000000000000000000000000000000000000000007bffffffffffffffffffffffffffffffffffffffffffffffffffffffff1916827bffffffffffffffffffffffffffffffffffffffffffffffffffffffff1916149050919050565b5f806109ff836110ef565b90505f73ffffffffffffffffffffffffffffffffffffffff168173ffffffffffffffffffffffffffffffffffffffff1603610a7157826040517f7e273289000000000000000000000000000000000000000000000000000000008152600401610a6891906119df565b60405180910390fd5b80915050919050565b5f60045f8381526020019081526020015f205f9054906101000a900473ffffffffffffffffffffffffffffffffffffffff169050919050565b5f33905090565b610ac78383836001611128565b505050565b610ae5828260405180602001604052805f8152506112e7565b5050565b5f80610af4846110ef565b90505f73ffffffffffffffffffffffffffffffffffffffff168373ffffffffffffffffffffffffffffffffffffffff1614610b3557610b34818486611302565b5b5f73ffffffffffffffffffffffffffffffffffffffff168173ffffffffffffffffffffffffffffffffffffffff1614610bc057610b745f855f80611128565b600160035f8373ffffffffffffffffffffffffffffffffffffffff1673ffffffffffffffffffffffffffffffffffffffff1681526020019081526020015f205f82825403925050819055505b5f73ffffffffffffffffffffffffffffffffffffffff168573ffffffffffffffffffffffffffffffffffffffff1614610c3f57600160035f8773ffffffffffffffffffffffffffffffffffffffff1673ffffffffffffffffffffffffffffffffffffffff1681526020019081526020015f205f82825401925050819055505b8460025f8681526020019081526020015f205f6101000a81548173ffffffffffffffffffffffffffffffffffffffff021916908373ffffffffffffffffffffffffffffffffffffffff160217905550838573ffffffffffffffffffffffffffffffffffffffff168273ffffffffffffffffffffffffffffffffffffffff167fddf252ad1be2c89b69c2b068fc378daa952ba7f163c4a11628f55a4df523b3ef60405160405180910390a4809150509392505050565b5f73ffffffffffffffffffffffffffffffffffffffff168273ffffffffffffffffffffffffffffffffffffffff1603610d6457816040517f5b08ba18000000000000000000000000000000000000000000000000000000008152600401610d5b91906118d4565b60405180910390fd5b8060055f8573ffffffffffffffffffffffffffffffffffffffff1673ffffffffffffffffffffffffffffffffffffffff1681526020019081526020015f205f8473ffffffffffffffffffffffffffffffffffffffff1673ffffffffffffffffffffffffffffffffffffffff1681526020019081526020015f205f6101000a81548160ff0219169083151502179055508173ffffffffffffffffffffffffffffffffffffffff168373ffffffffffffffffffffffffffffffffffffffff167f17307eab39ab6107e8899845ad3d59bd9653f200f220920489ca2b5937696c3183604051610e509190611774565b60405180910390a3505050565b5f8373ffffffffffffffffffffffffffffffffffffffff163b1115611009578273ffffffffffffffffffffffffffffffffffffffff1663150b7a02610ea0610ab3565b8685856040518563ffffffff1660e01b8152600401610ec29493929190611e67565b6020604051808303815f875af1925050508015610efd57506040513d601f19601f82011682018060405250810190610efa9190611ec5565b60015b610f7e573d805f8114610f2b576040519150601f19603f3d011682016040523d82523d5f602084013e610f30565b606091505b505f815103610f7657836040517f64a0ae92000000000000000000000000000000000000000000000000000000008152600401610f6d91906118d4565b60405180910390fd5b805181602001fd5b63150b7a0260e01b7bffffffffffffffffffffffffffffffffffffffffffffffffffffffff1916817bffffffffffffffffffffffffffffffffffffffffffffffffffffffff19161461100757836040517f64a0ae92000000000000000000000000000000000000000000000000000000008152600401610ffe91906118d4565b60405180910390fd5b505b50505050565b606060405180602001604052805f815250905090565b60605f6001611033846113c5565b0190505f8167ffffffffffffffff81111561105157611050611a68565b5b6040519080825280601f01601f1916602001820160405280156110835781602001600182028036833780820191505090505b5090505f82602001820190505b6001156110e4578080600190039150507f3031323334353637383961626364656600000000000000000000000000000000600a86061a8153600a85816110d9576110d8611ef0565b5b0494505f8503611090575b819350505050919050565b5f60025f8381526020019081526020015f205f9054906101000a900473ffffffffffffffffffffffffffffffffffffffff169050919050565b808061116057505f73ffffffffffffffffffffffffffffffffffffffff168273ffffffffffffffffffffffffffffffffffffffff1614155b15611292575f61116f846109f4565b90505f73ffffffffffffffffffffffffffffffffffffffff168373ffffffffffffffffffffffffffffffffffffffff16141580156111d957508273ffffffffffffffffffffffffffffffffffffffff168173ffffffffffffffffffffffffffffffffffffffff1614155b80156111ec57506111ea81846108fd565b155b1561122e57826040517fa9fbf51f00000000000000000000000000000000000000000000000000000000815260040161122591906118d4565b60405180910390fd5b811561129057838573ffffffffffffffffffffffffffffffffffffffff168273ffffffffffffffffffffffffffffffffffffffff167f8c5be1e5ebec7d5bd14f71427d1e84f3dd0314c0f7b2291e5b200ac8c7c3b92560405160405180910390a45b505b8360045f8581526020019081526020015f205f6101000a81548173ffffffffffffffffffffffffffffffffffffffff021916908373ffffffffffffffffffffffffffffffffffffffff16021790555050505050565b6112f18383611516565b6112fd5f848484610e5d565b505050565b61130d838383611609565b6113c0575f73ffffffffffffffffffffffffffffffffffffffff168373ffffffffffffffffffffffffffffffffffffffff160361138157806040517f7e27328900000000000000000000000000000000000000000000000000000000815260040161137891906119df565b60405180910390fd5b81816040517f177e802f0000000000000000000000000000000000000000000000000000000081526004016113b7929190611f1d565b60405180910390fd5b505050565b5f805f90507a184f03e93ff9f4daa797ed6e38ed64bf6a1f0100000000000000008310611421577a184f03e93ff9f4daa797ed6e38ed64bf6a1f010000000000000000838161141757611416611ef0565b5b0492506040810190505b6d04ee2d6d415b85acef8100000000831061145e576d04ee2d6d415b85acef8100000000838161145457611453611ef0565b5b0492506020810190505b662386f26fc10000831061148d57662386f26fc10000838161148357611482611ef0565b5b0492506010810190505b6305f5e10083106114b6576305f5e10083816114ac576114ab611ef0565b5b0492506008810190505b61271083106114db5761271083816114d1576114d0611ef0565b5b0492506004810190505b606483106114fe57606483816114f4576114f3611ef0565b5b0492506002810190505b600a831061150d576001810190505b80915050919050565b5f73ffffffffffffffffffffffffffffffffffffffff168273ffffffffffffffffffffffffffffffffffffffff1603611586575f6040517f64a0ae9200000000000000000000000000000000000000000000000000000000815260040161157d91906118d4565b60405180910390fd5b5f61159283835f610ae9565b90505f73ffffffffffffffffffffffffffffffffffffffff168173ffffffffffffffffffffffffffffffffffffffff1614611604575f6040517f73c6ac6e0000000000000000000000000000000000000000000000000000000081526004016115fb91906118d4565b60405180910390fd5b505050565b5f8073ffffffffffffffffffffffffffffffffffffffff168373ffffffffffffffffffffffffffffffffffffffff16141580156116c057508273ffffffffffffffffffffffffffffffffffffffff168473ffffffffffffffffffffffffffffffffffffffff161480611681575061168084846108fd565b5b806116bf57508273ffffffffffffffffffffffffffffffffffffffff166116a783610a7a565b73ffffffffffffffffffffffffffffffffffffffff16145b5b90509392505050565b5f604051905090565b5f80fd5b5f80fd5b5f7fffffffff0000000000000000000000000000000000000000000000000000000082169050919050565b61170e816116da565b8114611718575f80fd5b50565b5f8135905061172981611705565b92915050565b5f60208284031215611744576117436116d2565b5b5f6117518482850161171b565b91505092915050565b5f8115159050919050565b61176e8161175a565b82525050565b5f6020820190506117875f830184611765565b92915050565b5f81519050919050565b5f82825260208201905092915050565b5f5b838110156117c45780820151818401526020810190506117a9565b5f8484015250505050565b5f601f19601f8301169050919050565b5f6117e98261178d565b6117f38185611797565b93506118038185602086016117a7565b61180c816117cf565b840191505092915050565b5f6020820190508181035f83015261182f81846117df565b905092915050565b5f819050919050565b61184981611837565b8114611853575f80fd5b50565b5f8135905061186481611840565b92915050565b5f6020828403121561187f5761187e6116d2565b5b5f61188c84828501611856565b91505092915050565b5f73ffffffffffffffffffffffffffffffffffffffff82169050919050565b5f6118be82611895565b9050919050565b6118ce816118b4565b82525050565b5f6020820190506118e75f8301846118c5565b92915050565b6118f6816118b4565b8114611900575f80fd5b50565b5f81359050611911816118ed565b92915050565b5f806040838503121561192d5761192c6116d2565b5b5f61193a85828601611903565b925050602061194b85828601611856565b9150509250929050565b5f805f6060848603121561196c5761196b6116d2565b5b5f61197986828701611903565b935050602061198a86828701611903565b925050604061199b86828701611856565b9150509250925092565b5f602082840312156119ba576119b96116d2565b5b5f6119c784828501611903565b91505092915050565b6119d981611837565b82525050565b5f6020820190506119f25f8301846119d0565b92915050565b611a018161175a565b8114611a0b575f80fd5b50565b5f81359050611a1c816119f8565b92915050565b5f8060408385031215611a3857611a376116d2565b5b5f611a4585828601611903565b9250506020611a5685828601611a0e565b9150509250929050565b5f80fd5b5f80fd5b7f4e487b71000000000000000000000000000000000000000000000000000000005f52604160045260245ffd5b611a9e826117cf565b810181811067ffffffffffffffff82111715611abd57611abc611a68565b5b80604052505050565b5f611acf6116c9565b9050611adb8282611a95565b919050565b5f67ffffffffffffffff821115611afa57611af9611a68565b5b611b03826117cf565b9050602081019050919050565b828183375f83830152505050565b5f611b30611b2b84611ae0565b611ac6565b905082815260208101848484011115611b4c57611b4b611a64565b5b611b57848285611b10565b509392505050565b5f82601f830112611b7357611b72611a60565b5b8135611b83848260208601611b1e565b91505092915050565b5f805f8060808587031215611ba457611ba36116d2565b5b5f611bb187828801611903565b9450506020611bc287828801611903565b9350506040611bd387828801611856565b925050606085013567ffffffffffffffff811115611bf457611bf36116d6565b5b611c0087828801611b5f565b91505092959194509250565b5f8060408385031215611c2257611c216116d2565b5b5f611c2f85828601611903565b9250506020611c4085828601611903565b9150509250929050565b7f4e487b71000000000000000000000000000000000000000000000000000000005f52602260045260245ffd5b5f6002820490506001821680611c8e57607f821691505b602082108103611ca157611ca0611c4a565b5b50919050565b7f496e73756666696369656e742066756e647320746f206d696e740000000000005f82015250565b5f611cdb601a83611797565b9150611ce682611ca7565b602082019050919050565b5f6020820190508181035f830152611d0881611ccf565b9050919050565b7f4e487b71000000000000000000000000000000000000000000000000000000005f52601160045260245ffd5b5f611d4682611837565b91507fffffffffffffffffffffffffffffffffffffffffffffffffffffffffffffffff8203611d7857611d77611d0f565b5b600182019050919050565b5f606082019050611d965f8301866118c5565b611da360208301856119d0565b611db060408301846118c5565b949350505050565b5f81905092915050565b5f611dcc8261178d565b611dd68185611db8565b9350611de68185602086016117a7565b80840191505092915050565b5f611dfd8285611dc2565b9150611e098284611dc2565b91508190509392505050565b5f81519050919050565b5f82825260208201905092915050565b5f611e3982611e15565b611e438185611e1f565b9350611e538185602086016117a7565b611e5c816117cf565b840191505092915050565b5f608082019050611e7a5f8301876118c5565b611e8760208301866118c5565b611e9460408301856119d0565b8181036060830152611ea68184611e2f565b905095945050505050565b5f81519050611ebf81611705565b92915050565b5f60208284031215611eda57611ed96116d2565b5b5f611ee784828501611eb1565b91505092915050565b7f4e487b71000000000000000000000000000000000000000000000000000000005f52601260045260245ffd5b5f604082019050611f305f8301856118c5565b611f3d60208301846119d0565b939250505056fea26469706673582212209b743caba318aa9bb5ca22f236253884960259d045f9b57afc42d0511d65337d64736f6c63430008160033",
			"opcodes": "PUSH1 0x80 PUSH1 0x40 MSTORE PUSH5 0xE8D4A51000 PUSH1 0x7 SSTORE CALLVALUE DUP1 ISZERO PUSH3 0x19 JUMPI PUSH0 DUP1 REVERT JUMPDEST POP PUSH1 0x40 MLOAD DUP1 PUSH1 0x40 ADD PUSH1 0x40 MSTORE DUP1 PUSH1 0x7 DUP2 MSTORE PUSH1 0x20 ADD PUSH32 0x596F75724E465400000000000000000000000000000000000000000000000000 DUP2 MSTORE POP PUSH1 0x40 MLOAD DUP1 PUSH1 0x40 ADD PUSH1 0x40 MSTORE DUP1 PUSH1 0x4 DUP2 MSTORE PUSH1 0x20 ADD PUSH32 0x594E465400000000000000000000000000000000000000000000000000000000 DUP2 MSTORE POP DUP2 PUSH0 SWAP1 DUP2 PUSH3 0x96 SWAP2 SWAP1 PUSH3 0x315 JUMP JUMPDEST POP DUP1 PUSH1 0x1 SWAP1 DUP2 PUSH3 0xA8 SWAP2 SWAP1 PUSH3 0x315 JUMP JUMPDEST POP POP POP PUSH3 0x3F9 JUMP JUMPDEST PUSH0 DUP2 MLOAD SWAP1 POP SWAP2 SWAP1 POP JUMP JUMPDEST PUSH32 0x4E487B7100000000000000000000000000000000000000000000000000000000 PUSH0 MSTORE PUSH1 0x41 PUSH1 0x4 MSTORE PUSH1 0x24 PUSH0 REVERT JUMPDEST PUSH32 0x4E487B7100000000000000000000000000000000000000000000000000000000 PUSH0 MSTORE PUSH1 0x22 PUSH1 0x4 MSTORE PUSH1 0x24 PUSH0 REVERT JUMPDEST PUSH0 PUSH1 0x2 DUP3 DIV SWAP1 POP PUSH1 0x1 DUP3 AND DUP1 PUSH3 0x12D JUMPI PUSH1 0x7F DUP3 AND SWAP2 POP JUMPDEST PUSH1 0x20 DUP3 LT DUP2 SUB PUSH3 0x143 JUMPI PUSH3 0x142 PUSH3 0xE8 JUMP JUMPDEST JUMPDEST POP SWAP2 SWAP1 POP JUMP JUMPDEST PUSH0 DUP2 SWAP1 POP DUP2 PUSH0 MSTORE PUSH1 0x20 PUSH0 KECCAK256 SWAP1 POP SWAP2 SWAP1 POP JUMP JUMPDEST PUSH0 PUSH1 0x20 PUSH1 0x1F DUP4 ADD DIV SWAP1 POP SWAP2 SWAP1 POP JUMP JUMPDEST PUSH0 DUP3 DUP3 SHL SWAP1 POP SWAP3 SWAP2 POP POP JUMP JUMPDEST PUSH0 PUSH1 0x8 DUP4 MUL PUSH3 0x1A7 PUSH32 0xFFFFFFFFFFFFFFFFFFFFFFFFFFFFFFFFFFFFFFFFFFFFFFFFFFFFFFFFFFFFFFFF DUP3 PUSH3 0x16A JUMP JUMPDEST PUSH3 0x1B3 DUP7 DUP4 PUSH3 0x16A JUMP JUMPDEST SWAP6 POP DUP1 NOT DUP5 AND SWAP4 POP DUP1 DUP7 AND DUP5 OR SWAP3 POP POP POP SWAP4 SWAP3 POP POP POP JUMP JUMPDEST PUSH0 DUP2 SWAP1 POP SWAP2 SWAP1 POP JUMP JUMPDEST PUSH0 DUP2 SWAP1 POP SWAP2 SWAP1 POP JUMP JUMPDEST PUSH0 PUSH3 0x1FD PUSH3 0x1F7 PUSH3 0x1F1 DUP5 PUSH3 0x1CB JUMP JUMPDEST PUSH3 0x1D4 JUMP JUMPDEST PUSH3 0x1CB JUMP JUMPDEST SWAP1 POP SWAP2 SWAP1 POP JUMP JUMPDEST PUSH0 DUP2 SWAP1 POP SWAP2 SWAP1 POP JUMP JUMPDEST PUSH3 0x218 DUP4 PUSH3 0x1DD JUMP JUMPDEST PUSH3 0x230 PUSH3 0x227 DUP3 PUSH3 0x204 JUMP JUMPDEST DUP5 DUP5 SLOAD PUSH3 0x176 JUMP JUMPDEST DUP3 SSTORE POP POP POP POP JUMP JUMPDEST PUSH0 SWAP1 JUMP JUMPDEST PUSH3 0x246 PUSH3 0x238 JUMP JUMPDEST PUSH3 0x253 DUP2 DUP5 DUP5 PUSH3 0x20D JUMP JUMPDEST POP POP POP JUMP JUMPDEST JUMPDEST DUP2 DUP2 LT ISZERO PUSH3 0x27A JUMPI PUSH3 0x26E PUSH0 DUP3 PUSH3 0x23C JUMP JUMPDEST PUSH1 0x1 DUP2 ADD SWAP1 POP PUSH3 0x259 JUMP JUMPDEST POP POP JUMP JUMPDEST PUSH1 0x1F DUP3 GT ISZERO PUSH3 0x2C9 JUMPI PUSH3 0x293 DUP2 PUSH3 0x149 JUMP JUMPDEST PUSH3 0x29E DUP5 PUSH3 0x15B JUMP JUMPDEST DUP2 ADD PUSH1 0x20 DUP6 LT ISZERO PUSH3 0x2AE JUMPI DUP2 SWAP1 POP JUMPDEST PUSH3 0x2C6 PUSH3 0x2BD DUP6 PUSH3 0x15B JUMP JUMPDEST DUP4 ADD DUP3 PUSH3 0x258 JUMP JUMPDEST POP POP JUMPDEST POP POP POP JUMP JUMPDEST PUSH0 DUP3 DUP3 SHR SWAP1 POP SWAP3 SWAP2 POP POP JUMP JUMPDEST PUSH0 PUSH3 0x2EB PUSH0 NOT DUP5 PUSH1 0x8 MUL PUSH3 0x2CE JUMP JUMPDEST NOT DUP1 DUP4 AND SWAP2 POP POP SWAP3 SWAP2 POP POP JUMP JUMPDEST PUSH0 PUSH3 0x305 DUP4 DUP4 PUSH3 0x2DA JUMP JUMPDEST SWAP2 POP DUP3 PUSH1 0x2 MUL DUP3 OR SWAP1 POP SWAP3 SWAP2 POP POP JUMP JUMPDEST PUSH3 0x320 DUP3 PUSH3 0xB1 JUMP JUMPDEST PUSH8 0xFFFFFFFFFFFFFFFF DUP2 GT ISZERO PUSH3 0x33C JUMPI PUSH3 0x33B PUSH3 0xBB JUMP JUMPDEST JUMPDEST PUSH3 0x348 DUP3 SLOAD PUSH3 0x115 JUMP JUMPDEST PUSH3 0x355 DUP3 DUP3 DUP6 PUSH3 0x27E JUMP JUMPDEST PUSH0 PUSH1 0x20 SWAP1 POP PUSH1 0x1F DUP4 GT PUSH1 0x1 DUP2 EQ PUSH3 0x38B JUMPI PUSH0 DUP5 ISZERO PUSH3 0x376 JUMPI DUP3 DUP8 ADD MLOAD SWAP1 POP JUMPDEST PUSH3 0x382 DUP6 DUP3 PUSH3 0x2F8 JUMP JUMPDEST DUP7 SSTORE POP PUSH3 0x3F1 JUMP JUMPDEST PUSH1 0x1F NOT DUP5 AND PUSH3 0x39B DUP7 PUSH3 0x149 JUMP JUMPDEST PUSH0 JUMPDEST DUP3 DUP2 LT ISZERO PUSH3 0x3C4 JUMPI DUP5 DUP10 ADD MLOAD DUP3 SSTORE PUSH1 0x1 DUP3 ADD SWAP2 POP PUSH1 0x20 DUP6 ADD SWAP5 POP PUSH1 0x20 DUP2 ADD SWAP1 POP PUSH3 0x39D JUMP JUMPDEST DUP7 DUP4 LT ISZERO PUSH3 0x3E4 JUMPI DUP5 DUP10 ADD MLOAD PUSH3 0x3E0 PUSH1 0x1F DUP10 AND DUP3 PUSH3 0x2DA JUMP JUMPDEST DUP4 SSTORE POP JUMPDEST PUSH1 0x1 PUSH1 0x2 DUP9 MUL ADD DUP9 SSTORE POP POP POP JUMPDEST POP POP POP POP POP POP JUMP JUMPDEST PUSH2 0x1F7A DUP1 PUSH3 0x407 PUSH0 CODECOPY PUSH0 RETURN INVALID PUSH1 0x80 PUSH1 0x40 MSTORE PUSH1 0x4 CALLDATASIZE LT PUSH2 0xF2 JUMPI PUSH0 CALLDATALOAD PUSH1 0xE0 SHR DUP1 PUSH4 0x70A08231 GT PUSH2 0x89 JUMPI DUP1 PUSH4 0xB88D4FDE GT PUSH2 0x58 JUMPI DUP1 PUSH4 0xB88D4FDE EQ PUSH2 0x30E JUMPI DUP1 PUSH4 0xC78F19F9 EQ PUSH2 0x336 JUMPI DUP1 PUSH4 0xC87B56DD EQ PUSH2 0x360 JUMPI DUP1 PUSH4 0xE985E9C5 EQ PUSH2 0x39C JUMPI PUSH2 0xF2 JUMP JUMPDEST DUP1 PUSH4 0x70A08231 EQ PUSH2 0x256 JUMPI DUP1 PUSH4 0x75794A3C EQ PUSH2 0x292 JUMPI DUP1 PUSH4 0x95D89B41 EQ PUSH2 0x2BC JUMPI DUP1 PUSH4 0xA22CB465 EQ PUSH2 0x2E6 JUMPI PUSH2 0xF2 JUMP JUMPDEST DUP1 PUSH4 0x1249C58B GT PUSH2 0xC5 JUMPI DUP1 PUSH4 0x1249C58B EQ PUSH2 0x1C0 JUMPI DUP1 PUSH4 0x23B872DD EQ PUSH2 0x1CA JUMPI DUP1 PUSH4 0x42842E0E EQ PUSH2 0x1F2 JUMPI DUP1 PUSH4 0x6352211E EQ PUSH2 0x21A JUMPI PUSH2 0xF2 JUMP JUMPDEST DUP1 PUSH4 0x1FFC9A7 EQ PUSH2 0xF6 JUMPI DUP1 PUSH4 0x6FDDE03 EQ PUSH2 0x132 JUMPI DUP1 PUSH4 0x81812FC EQ PUSH2 0x15C JUMPI DUP1 PUSH4 0x95EA7B3 EQ PUSH2 0x198 JUMPI JUMPDEST PUSH0 DUP1 REVERT JUMPDEST CALLVALUE DUP1 ISZERO PUSH2 0x101 JUMPI PUSH0 DUP1 REVERT JUMPDEST POP PUSH2 0x11C PUSH1 0x4 DUP1 CALLDATASIZE SUB DUP2 ADD SWAP1 PUSH2 0x117 SWAP2 SWAP1 PUSH2 0x172F JUMP JUMPDEST PUSH2 0x3D8 JUMP JUMPDEST PUSH1 0x40 MLOAD PUSH2 0x129 SWAP2 SWAP1 PUSH2 0x1774 JUMP JUMPDEST PUSH1 0x40 MLOAD DUP1 SWAP2 SUB SWAP1 RETURN JUMPDEST CALLVALUE DUP1 ISZERO PUSH2 0x13D JUMPI PUSH0 DUP1 REVERT JUMPDEST POP PUSH2 0x146 PUSH2 0x4B9 JUMP JUMPDEST PUSH1 0x40 MLOAD PUSH2 0x153 SWAP2 SWAP1 PUSH2 0x1817 JUMP JUMPDEST PUSH1 0x40 MLOAD DUP1 SWAP2 SUB SWAP1 RETURN JUMPDEST CALLVALUE DUP1 ISZERO PUSH2 0x167 JUMPI PUSH0 DUP1 REVERT JUMPDEST POP PUSH2 0x182 PUSH1 0x4 DUP1 CALLDATASIZE SUB DUP2 ADD SWAP1 PUSH2 0x17D SWAP2 SWAP1 PUSH2 0x186A JUMP JUMPDEST PUSH2 0x548 JUMP JUMPDEST PUSH1 0x40 MLOAD PUSH2 0x18F SWAP2 SWAP1 PUSH2 0x18D4 JUMP JUMPDEST PUSH1 0x40 MLOAD DUP1 SWAP2 SUB SWAP1 RETURN JUMPDEST CALLVALUE DUP1 ISZERO PUSH2 0x1A3 JUMPI PUSH0 DUP1 REVERT JUMPDEST POP PUSH2 0x1BE PUSH1 0x4 DUP1 CALLDATASIZE SUB DUP2 ADD SWAP1 PUSH2 0x1B9 SWAP2 SWAP1 PUSH2 0x1917 JUMP JUMPDEST PUSH2 0x563 JUMP JUMPDEST STOP JUMPDEST PUSH2 0x1C8 PUSH2 0x579 JUMP JUMPDEST STOP JUMPDEST CALLVALUE DUP1 ISZERO PUSH2 0x1D5 JUMPI PUSH0 DUP1 REVERT JUMPDEST POP PUSH2 0x1F0 PUSH1 0x4 DUP1 CALLDATASIZE SUB DUP2 ADD SWAP1 PUSH2 0x1EB SWAP2 SWAP1 PUSH2 0x1955 JUMP JUMPDEST PUSH2 0x5E3 JUMP JUMPDEST STOP JUMPDEST CALLVALUE DUP1 ISZERO PUSH2 0x1FD JUMPI PUSH0 DUP1 REVERT JUMPDEST POP PUSH2 0x218 PUSH1 0x4 DUP1 CALLDATASIZE SUB DUP2 ADD SWAP1 PUSH2 0x213 SWAP2 SWAP1 PUSH2 0x1955 JUMP JUMPDEST PUSH2 0x6E2 JUMP JUMPDEST STOP JUMPDEST CALLVALUE DUP1 ISZERO PUSH2 0x225 JUMPI PUSH0 DUP1 REVERT JUMPDEST POP PUSH2 0x240 PUSH1 0x4 DUP1 CALLDATASIZE SUB DUP2 ADD SWAP1 PUSH2 0x23B SWAP2 SWAP1 PUSH2 0x186A JUMP JUMPDEST PUSH2 0x701 JUMP JUMPDEST PUSH1 0x40 MLOAD PUSH2 0x24D SWAP2 SWAP1 PUSH2 0x18D4 JUMP JUMPDEST PUSH1 0x40 MLOAD DUP1 SWAP2 SUB SWAP1 RETURN JUMPDEST CALLVALUE DUP1 ISZERO PUSH2 0x261 JUMPI PUSH0 DUP1 REVERT JUMPDEST POP PUSH2 0x27C PUSH1 0x4 DUP1 CALLDATASIZE SUB DUP2 ADD SWAP1 PUSH2 0x277 SWAP2 SWAP1 PUSH2 0x19A5 JUMP JUMPDEST PUSH2 0x712 JUMP JUMPDEST PUSH1 0x40 MLOAD PUSH2 0x289 SWAP2 SWAP1 PUSH2 0x19DF JUMP JUMPDEST PUSH1 0x40 MLOAD DUP1 SWAP2 SUB SWAP1 RETURN JUMPDEST CALLVALUE DUP1 ISZERO PUSH2 0x29D JUMPI PUSH0 DUP1 REVERT JUMPDEST POP PUSH2 0x2A6 PUSH2 0x7C8 JUMP JUMPDEST PUSH1 0x40 MLOAD PUSH2 0x2B3 SWAP2 SWAP1 PUSH2 0x19DF JUMP JUMPDEST PUSH1 0x40 MLOAD DUP1 SWAP2 SUB SWAP1 RETURN JUMPDEST CALLVALUE DUP1 ISZERO PUSH2 0x2C7 JUMPI PUSH0 DUP1 REVERT JUMPDEST POP PUSH2 0x2D0 PUSH2 0x7CE JUMP JUMPDEST PUSH1 0x40 MLOAD PUSH2 0x2DD SWAP2 SWAP1 PUSH2 0x1817 JUMP JUMPDEST PUSH1 0x40 MLOAD DUP1 SWAP2 SUB SWAP1 RETURN JUMPDEST CALLVALUE DUP1 ISZERO PUSH2 0x2F1 JUMPI PUSH0 DUP1 REVERT JUMPDEST POP PUSH2 0x30C PUSH1 0x4 DUP1 CALLDATASIZE SUB DUP2 ADD SWAP1 PUSH2 0x307 SWAP2 SWAP1 PUSH2 0x1A22 JUMP JUMPDEST PUSH2 0x85E JUMP JUMPDEST STOP JUMPDEST CALLVALUE DUP1 ISZERO PUSH2 0x319 JUMPI PUSH0 DUP1 REVERT JUMPDEST POP PUSH2 0x334 PUSH1 0x4 DUP1 CALLDATASIZE SUB DUP2 ADD SWAP1 PUSH2 0x32F SWAP2 SWAP1 PUSH2 0x1B8C JUMP JUMPDEST PUSH2 0x874 JUMP JUMPDEST STOP JUMPDEST CALLVALUE DUP1 ISZERO PUSH2 0x341 JUMPI PUSH0 DUP1 REVERT JUMPDEST POP PUSH2 0x34A PUSH2 0x891 JUMP JUMPDEST PUSH1 0x40 MLOAD PUSH2 0x357 SWAP2 SWAP1 PUSH2 0x19DF JUMP JUMPDEST PUSH1 0x40 MLOAD DUP1 SWAP2 SUB SWAP1 RETURN JUMPDEST CALLVALUE DUP1 ISZERO PUSH2 0x36B JUMPI PUSH0 DUP1 REVERT JUMPDEST POP PUSH2 0x386 PUSH1 0x4 DUP1 CALLDATASIZE SUB DUP2 ADD SWAP1 PUSH2 0x381 SWAP2 SWAP1 PUSH2 0x186A JUMP JUMPDEST PUSH2 0x897 JUMP JUMPDEST PUSH1 0x40 MLOAD PUSH2 0x393 SWAP2 SWAP1 PUSH2 0x1817 JUMP JUMPDEST PUSH1 0x40 MLOAD DUP1 SWAP2 SUB SWAP1 RETURN JUMPDEST CALLVALUE DUP1 ISZERO PUSH2 0x3A7 JUMPI PUSH0 DUP1 REVERT JUMPDEST POP PUSH2 0x3C2 PUSH1 0x4 DUP1 CALLDATASIZE SUB DUP2 ADD SWAP1 PUSH2 0x3BD SWAP2 SWAP1 PUSH2 0x1C0C JUMP JUMPDEST PUSH2 0x8FD JUMP JUMPDEST PUSH1 0x40 MLOAD PUSH2 0x3CF SWAP2 SWAP1 PUSH2 0x1774 JUMP JUMPDEST PUSH1 0x40 MLOAD DUP1 SWAP2 SUB SWAP1 RETURN JUMPDEST PUSH0 PUSH32 0x80AC58CD00000000000000000000000000000000000000000000000000000000 PUSH28 0xFFFFFFFFFFFFFFFFFFFFFFFFFFFFFFFFFFFFFFFFFFFFFFFFFFFFFFFF NOT AND DUP3 PUSH28 0xFFFFFFFFFFFFFFFFFFFFFFFFFFFFFFFFFFFFFFFFFFFFFFFFFFFFFFFF NOT AND EQ DUP1 PUSH2 0x4A2 JUMPI POP PUSH32 0x5B5E139F00000000000000000000000000000000000000000000000000000000 PUSH28 0xFFFFFFFFFFFFFFFFFFFFFFFFFFFFFFFFFFFFFFFFFFFFFFFFFFFFFFFF NOT AND DUP3 PUSH28 0xFFFFFFFFFFFFFFFFFFFFFFFFFFFFFFFFFFFFFFFFFFFFFFFFFFFFFFFF NOT AND EQ JUMPDEST DUP1 PUSH2 0x4B2 JUMPI POP PUSH2 0x4B1 DUP3 PUSH2 0x98B JUMP JUMPDEST JUMPDEST SWAP1 POP SWAP2 SWAP1 POP JUMP JUMPDEST PUSH1 0x60 PUSH0 DUP1 SLOAD PUSH2 0x4C7 SWAP1 PUSH2 0x1C77 JUMP JUMPDEST DUP1 PUSH1 0x1F ADD PUSH1 0x20 DUP1 SWAP2 DIV MUL PUSH1 0x20 ADD PUSH1 0x40 MLOAD SWAP1 DUP2 ADD PUSH1 0x40 MSTORE DUP1 SWAP3 SWAP2 SWAP1 DUP2 DUP2 MSTORE PUSH1 0x20 ADD DUP3 DUP1 SLOAD PUSH2 0x4F3 SWAP1 PUSH2 0x1C77 JUMP JUMPDEST DUP1 ISZERO PUSH2 0x53E JUMPI DUP1 PUSH1 0x1F LT PUSH2 0x515 JUMPI PUSH2 0x100 DUP1 DUP4 SLOAD DIV MUL DUP4 MSTORE SWAP2 PUSH1 0x20 ADD SWAP2 PUSH2 0x53E JUMP JUMPDEST DUP3 ADD SWAP2 SWAP1 PUSH0 MSTORE PUSH1 0x20 PUSH0 KECCAK256 SWAP1 JUMPDEST DUP2 SLOAD DUP2 MSTORE SWAP1 PUSH1 0x1 ADD SWAP1 PUSH1 0x20 ADD DUP1 DUP4 GT PUSH2 0x521 JUMPI DUP3 SWAP1 SUB PUSH1 0x1F AND DUP3 ADD SWAP2 JUMPDEST POP POP POP POP POP SWAP1 POP SWAP1 JUMP JUMPDEST PUSH0 PUSH2 0x552 DUP3 PUSH2 0x9F4 JUMP JUMPDEST POP PUSH2 0x55C DUP3 PUSH2 0xA7A JUMP JUMPDEST SWAP1 POP SWAP2 SWAP1 POP JUMP JUMPDEST PUSH2 0x575 DUP3 DUP3 PUSH2 0x570 PUSH2 0xAB3 JUMP JUMPDEST PUSH2 0xABA JUMP JUMPDEST POP POP JUMP JUMPDEST PUSH1 0x7 SLOAD CALLVALUE LT ISZERO PUSH2 0x5BE JUMPI PUSH1 0x40 MLOAD PUSH32 0x8C379A000000000000000000000000000000000000000000000000000000000 DUP2 MSTORE PUSH1 0x4 ADD PUSH2 0x5B5 SWAP1 PUSH2 0x1CF1 JUMP JUMPDEST PUSH1 0x40 MLOAD DUP1 SWAP2 SUB SWAP1 REVERT JUMPDEST PUSH2 0x5CA CALLER PUSH1 0x6 SLOAD PUSH2 0xACC JUMP JUMPDEST PUSH1 0x6 PUSH0 DUP2 SLOAD DUP1 SWAP3 SWAP2 SWAP1 PUSH2 0x5DC SWAP1 PUSH2 0x1D3C JUMP JUMPDEST SWAP2 SWAP1 POP SSTORE POP JUMP JUMPDEST PUSH0 PUSH20 0xFFFFFFFFFFFFFFFFFFFFFFFFFFFFFFFFFFFFFFFF AND DUP3 PUSH20 0xFFFFFFFFFFFFFFFFFFFFFFFFFFFFFFFFFFFFFFFF AND SUB PUSH2 0x653 JUMPI PUSH0 PUSH1 0x40 MLOAD PUSH32 0x64A0AE9200000000000000000000000000000000000000000000000000000000 DUP2 MSTORE PUSH1 0x4 ADD PUSH2 0x64A SWAP2 SWAP1 PUSH2 0x18D4 JUMP JUMPDEST PUSH1 0x40 MLOAD DUP1 SWAP2 SUB SWAP1 REVERT JUMPDEST PUSH0 PUSH2 0x666 DUP4 DUP4 PUSH2 0x661 PUSH2 0xAB3 JUMP JUMPDEST PUSH2 0xAE9 JUMP JUMPDEST SWAP1 POP DUP4 PUSH20 0xFFFFFFFFFFFFFFFFFFFFFFFFFFFFFFFFFFFFFFFF AND DUP2 PUSH20 0xFFFFFFFFFFFFFFFFFFFFFFFFFFFFFFFFFFFFFFFF AND EQ PUSH2 0x6DC JUMPI DUP4 DUP3 DUP3 PUSH1 0x40 MLOAD PUSH32 0x64283D7B00000000000000000000000000000000000000000000000000000000 DUP2 MSTORE PUSH1 0x4 ADD PUSH2 0x6D3 SWAP4 SWAP3 SWAP2 SWAP1 PUSH2 0x1D83 JUMP JUMPDEST PUSH1 0x40 MLOAD DUP1 SWAP2 SUB SWAP1 REVERT JUMPDEST POP POP POP POP JUMP JUMPDEST PUSH2 0x6FC DUP4 DUP4 DUP4 PUSH1 0x40 MLOAD DUP1 PUSH1 0x20 ADD PUSH1 0x40 MSTORE DUP1 PUSH0 DUP2 MSTORE POP PUSH2 0x874 JUMP JUMPDEST POP POP POP JUMP JUMPDEST PUSH0 PUSH2 0x70B DUP3 PUSH2 0x9F4 JUMP JUMPDEST SWAP1 POP SWAP2 SWAP1 POP JUMP JUMPDEST PUSH0 DUP1 PUSH20 0xFFFFFFFFFFFFFFFFFFFFFFFFFFFFFFFFFFFFFFFF AND DUP3 PUSH20 0xFFFFFFFFFFFFFFFFFFFFFFFFFFFFFFFFFFFFFFFF AND SUB PUSH2 0x783 JUMPI PUSH0 PUSH1 0x40 MLOAD PUSH32 0x89C62B6400000000000000000000000000000000000000000000000000000000 DUP2 MSTORE PUSH1 0x4 ADD PUSH2 0x77A SWAP2 SWAP1 PUSH2 0x18D4 JUMP JUMPDEST PUSH1 0x40 MLOAD DUP1 SWAP2 SUB SWAP1 REVERT JUMPDEST PUSH1 0x3 PUSH0 DUP4 PUSH20 0xFFFFFFFFFFFFFFFFFFFFFFFFFFFFFFFFFFFFFFFF AND PUSH20 0xFFFFFFFFFFFFFFFFFFFFFFFFFFFFFFFFFFFFFFFF AND DUP2 MSTORE PUSH1 0x20 ADD SWAP1 DUP2 MSTORE PUSH1 0x20 ADD PUSH0 KECCAK256 SLOAD SWAP1 POP SWAP2 SWAP1 POP JUMP JUMPDEST PUSH1 0x6 SLOAD DUP2 JUMP JUMPDEST PUSH1 0x60 PUSH1 0x1 DUP1 SLOAD PUSH2 0x7DD SWAP1 PUSH2 0x1C77 JUMP JUMPDEST DUP1 PUSH1 0x1F ADD PUSH1 0x20 DUP1 SWAP2 DIV MUL PUSH1 0x20 ADD PUSH1 0x40 MLOAD SWAP1 DUP2 ADD PUSH1 0x40 MSTORE DUP1 SWAP3 SWAP2 SWAP1 DUP2 DUP2 MSTORE PUSH1 0x20 ADD DUP3 DUP1 SLOAD PUSH2 0x809 SWAP1 PUSH2 0x1C77 JUMP JUMPDEST DUP1 ISZERO PUSH2 0x854 JUMPI DUP1 PUSH1 0x1F LT PUSH2 0x82B JUMPI PUSH2 0x100 DUP1 DUP4 SLOAD DIV MUL DUP4 MSTORE SWAP2 PUSH1 0x20 ADD SWAP2 PUSH2 0x854 JUMP JUMPDEST DUP3 ADD SWAP2 SWAP1 PUSH0 MSTORE PUSH1 0x20 PUSH0 KECCAK256 SWAP1 JUMPDEST DUP2 SLOAD DUP2 MSTORE SWAP1 PUSH1 0x1 ADD SWAP1 PUSH1 0x20 ADD DUP1 DUP4 GT PUSH2 0x837 JUMPI DUP3 SWAP1 SUB PUSH1 0x1F AND DUP3 ADD SWAP2 JUMPDEST POP POP POP POP POP SWAP1 POP SWAP1 JUMP JUMPDEST PUSH2 0x870 PUSH2 0x869 PUSH2 0xAB3 JUMP JUMPDEST DUP4 DUP4 PUSH2 0xCF4 JUMP JUMPDEST POP POP JUMP JUMPDEST PUSH2 0x87F DUP5 DUP5 DUP5 PUSH2 0x5E3 JUMP JUMPDEST PUSH2 0x88B DUP5 DUP5 DUP5 DUP5 PUSH2 0xE5D JUMP JUMPDEST POP POP POP POP JUMP JUMPDEST PUSH1 0x7 SLOAD DUP2 JUMP JUMPDEST PUSH1 0x60 PUSH2 0x8A2 DUP3 PUSH2 0x9F4 JUMP JUMPDEST POP PUSH0 PUSH2 0x8AC PUSH2 0x100F JUMP JUMPDEST SWAP1 POP PUSH0 DUP2 MLOAD GT PUSH2 0x8CA JUMPI PUSH1 0x40 MLOAD DUP1 PUSH1 0x20 ADD PUSH1 0x40 MSTORE DUP1 PUSH0 DUP2 MSTORE POP PUSH2 0x8F5 JUMP JUMPDEST DUP1 PUSH2 0x8D4 DUP5 PUSH2 0x1025 JUMP JUMPDEST PUSH1 0x40 MLOAD PUSH1 0x20 ADD PUSH2 0x8E5 SWAP3 SWAP2 SWAP1 PUSH2 0x1DF2 JUMP JUMPDEST PUSH1 0x40 MLOAD PUSH1 0x20 DUP2 DUP4 SUB SUB DUP2 MSTORE SWAP1 PUSH1 0x40 MSTORE JUMPDEST SWAP2 POP POP SWAP2 SWAP1 POP JUMP JUMPDEST PUSH0 PUSH1 0x5 PUSH0 DUP5 PUSH20 0xFFFFFFFFFFFFFFFFFFFFFFFFFFFFFFFFFFFFFFFF AND PUSH20 0xFFFFFFFFFFFFFFFFFFFFFFFFFFFFFFFFFFFFFFFF AND DUP2 MSTORE PUSH1 0x20 ADD SWAP1 DUP2 MSTORE PUSH1 0x20 ADD PUSH0 KECCAK256 PUSH0 DUP4 PUSH20 0xFFFFFFFFFFFFFFFFFFFFFFFFFFFFFFFFFFFFFFFF AND PUSH20 0xFFFFFFFFFFFFFFFFFFFFFFFFFFFFFFFFFFFFFFFF AND DUP2 MSTORE PUSH1 0x20 ADD SWAP1 DUP2 MSTORE PUSH1 0x20 ADD PUSH0 KECCAK256 PUSH0 SWAP1 SLOAD SWAP1 PUSH2 0x100 EXP SWAP1 DIV PUSH1 0xFF AND SWAP1 POP SWAP3 SWAP2 POP POP JUMP JUMPDEST PUSH0 PUSH32 0x1FFC9A700000000000000000000000000000000000000000000000000000000 PUSH28 0xFFFFFFFFFFFFFFFFFFFFFFFFFFFFFFFFFFFFFFFFFFFFFFFFFFFFFFFF NOT AND DUP3 PUSH28 0xFFFFFFFFFFFFFFFFFFFFFFFFFFFFFFFFFFFFFFFFFFFFFFFFFFFFFFFF NOT AND EQ SWAP1 POP SWAP2 SWAP1 POP JUMP JUMPDEST PUSH0 DUP1 PUSH2 0x9FF DUP4 PUSH2 0x10EF JUMP JUMPDEST SWAP1 POP PUSH0 PUSH20 0xFFFFFFFFFFFFFFFFFFFFFFFFFFFFFFFFFFFFFFFF AND DUP2 PUSH20 0xFFFFFFFFFFFFFFFFFFFFFFFFFFFFFFFFFFFFFFFF AND SUB PUSH2 0xA71 JUMPI DUP3 PUSH1 0x40 MLOAD PUSH32 0x7E27328900000000000000000000000000000000000000000000000000000000 DUP2 MSTORE PUSH1 0x4 ADD PUSH2 0xA68 SWAP2 SWAP1 PUSH2 0x19DF JUMP JUMPDEST PUSH1 0x40 MLOAD DUP1 SWAP2 SUB SWAP1 REVERT JUMPDEST DUP1 SWAP2 POP POP SWAP2 SWAP1 POP JUMP JUMPDEST PUSH0 PUSH1 0x4 PUSH0 DUP4 DUP2 MSTORE PUSH1 0x20 ADD SWAP1 DUP2 MSTORE PUSH1 0x20 ADD PUSH0 KECCAK256 PUSH0 SWAP1 SLOAD SWAP1 PUSH2 0x100 EXP SWAP1 DIV PUSH20 0xFFFFFFFFFFFFFFFFFFFFFFFFFFFFFFFFFFFFFFFF AND SWAP1 POP SWAP2 SWAP1 POP JUMP JUMPDEST PUSH0 CALLER SWAP1 POP SWAP1 JUMP JUMPDEST PUSH2 0xAC7 DUP4 DUP4 DUP4 PUSH1 0x1 PUSH2 0x1128 JUMP JUMPDEST POP POP POP JUMP JUMPDEST PUSH2 0xAE5 DUP3 DUP3 PUSH1 0x40 MLOAD DUP1 PUSH1 0x20 ADD PUSH1 0x40 MSTORE DUP1 PUSH0 DUP2 MSTORE POP PUSH2 0x12E7 JUMP JUMPDEST POP POP JUMP JUMPDEST PUSH0 DUP1 PUSH2 0xAF4 DUP5 PUSH2 0x10EF JUMP JUMPDEST SWAP1 POP PUSH0 PUSH20 0xFFFFFFFFFFFFFFFFFFFFFFFFFFFFFFFFFFFFFFFF AND DUP4 PUSH20 0xFFFFFFFFFFFFFFFFFFFFFFFFFFFFFFFFFFFFFFFF AND EQ PUSH2 0xB35 JUMPI PUSH2 0xB34 DUP2 DUP5 DUP7 PUSH2 0x1302 JUMP JUMPDEST JUMPDEST PUSH0 PUSH20 0xFFFFFFFFFFFFFFFFFFFFFFFFFFFFFFFFFFFFFFFF AND DUP2 PUSH20 0xFFFFFFFFFFFFFFFFFFFFFFFFFFFFFFFFFFFFFFFF AND EQ PUSH2 0xBC0 JUMPI PUSH2 0xB74 PUSH0 DUP6 PUSH0 DUP1 PUSH2 0x1128 JUMP JUMPDEST PUSH1 0x1 PUSH1 0x3 PUSH0 DUP4 PUSH20 0xFFFFFFFFFFFFFFFFFFFFFFFFFFFFFFFFFFFFFFFF AND PUSH20 0xFFFFFFFFFFFFFFFFFFFFFFFFFFFFFFFFFFFFFFFF AND DUP2 MSTORE PUSH1 0x20 ADD SWAP1 DUP2 MSTORE PUSH1 0x20 ADD PUSH0 KECCAK256 PUSH0 DUP3 DUP3 SLOAD SUB SWAP3 POP POP DUP2 SWAP1 SSTORE POP JUMPDEST PUSH0 PUSH20 0xFFFFFFFFFFFFFFFFFFFFFFFFFFFFFFFFFFFFFFFF AND DUP6 PUSH20 0xFFFFFFFFFFFFFFFFFFFFFFFFFFFFFFFFFFFFFFFF AND EQ PUSH2 0xC3F JUMPI PUSH1 0x1 PUSH1 0x3 PUSH0 DUP8 PUSH20 0xFFFFFFFFFFFFFFFFFFFFFFFFFFFFFFFFFFFFFFFF AND PUSH20 0xFFFFFFFFFFFFFFFFFFFFFFFFFFFFFFFFFFFFFFFF AND DUP2 MSTORE PUSH1 0x20 ADD SWAP1 DUP2 MSTORE PUSH1 0x20 ADD PUSH0 KECCAK256 PUSH0 DUP3 DUP3 SLOAD ADD SWAP3 POP POP DUP2 SWAP1 SSTORE POP JUMPDEST DUP5 PUSH1 0x2 PUSH0 DUP7 DUP2 MSTORE PUSH1 0x20 ADD SWAP1 DUP2 MSTORE PUSH1 0x20 ADD PUSH0 KECCAK256 PUSH0 PUSH2 0x100 EXP DUP2 SLOAD DUP2 PUSH20 0xFFFFFFFFFFFFFFFFFFFFFFFFFFFFFFFFFFFFFFFF MUL NOT AND SWAP1 DUP4 PUSH20 0xFFFFFFFFFFFFFFFFFFFFFFFFFFFFFFFFFFFFFFFF AND MUL OR SWAP1 SSTORE POP DUP4 DUP6 PUSH20 0xFFFFFFFFFFFFFFFFFFFFFFFFFFFFFFFFFFFFFFFF AND DUP3 PUSH20 0xFFFFFFFFFFFFFFFFFFFFFFFFFFFFFFFFFFFFFFFF AND PUSH32 0xDDF252AD1BE2C89B69C2B068FC378DAA952BA7F163C4A11628F55A4DF523B3EF PUSH1 0x40 MLOAD PUSH1 0x40 MLOAD DUP1 SWAP2 SUB SWAP1 LOG4 DUP1 SWAP2 POP POP SWAP4 SWAP3 POP POP POP JUMP JUMPDEST PUSH0 PUSH20 0xFFFFFFFFFFFFFFFFFFFFFFFFFFFFFFFFFFFFFFFF AND DUP3 PUSH20 0xFFFFFFFFFFFFFFFFFFFFFFFFFFFFFFFFFFFFFFFF AND SUB PUSH2 0xD64 JUMPI DUP2 PUSH1 0x40 MLOAD PUSH32 0x5B08BA1800000000000000000000000000000000000000000000000000000000 DUP2 MSTORE PUSH1 0x4 ADD PUSH2 0xD5B SWAP2 SWAP1 PUSH2 0x18D4 JUMP JUMPDEST PUSH1 0x40 MLOAD DUP1 SWAP2 SUB SWAP1 REVERT JUMPDEST DUP1 PUSH1 0x5 PUSH0 DUP6 PUSH20 0xFFFFFFFFFFFFFFFFFFFFFFFFFFFFFFFFFFFFFFFF AND PUSH20 0xFFFFFFFFFFFFFFFFFFFFFFFFFFFFFFFFFFFFFFFF AND DUP2 MSTORE PUSH1 0x20 ADD SWAP1 DUP2 MSTORE PUSH1 0x20 ADD PUSH0 KECCAK256 PUSH0 DUP5 PUSH20 0xFFFFFFFFFFFFFFFFFFFFFFFFFFFFFFFFFFFFFFFF AND PUSH20 0xFFFFFFFFFFFFFFFFFFFFFFFFFFFFFFFFFFFFFFFF AND DUP2 MSTORE PUSH1 0x20 ADD SWAP1 DUP2 MSTORE PUSH1 0x20 ADD PUSH0 KECCAK256 PUSH0 PUSH2 0x100 EXP DUP2 SLOAD DUP2 PUSH1 0xFF MUL NOT AND SWAP1 DUP4 ISZERO ISZERO MUL OR SWAP1 SSTORE POP DUP2 PUSH20 0xFFFFFFFFFFFFFFFFFFFFFFFFFFFFFFFFFFFFFFFF AND DUP4 PUSH20 0xFFFFFFFFFFFFFFFFFFFFFFFFFFFFFFFFFFFFFFFF AND PUSH32 0x17307EAB39AB6107E8899845AD3D59BD9653F200F220920489CA2B5937696C31 DUP4 PUSH1 0x40 MLOAD PUSH2 0xE50 SWAP2 SWAP1 PUSH2 0x1774 JUMP JUMPDEST PUSH1 0x40 MLOAD DUP1 SWAP2 SUB SWAP1 LOG3 POP POP POP JUMP JUMPDEST PUSH0 DUP4 PUSH20 0xFFFFFFFFFFFFFFFFFFFFFFFFFFFFFFFFFFFFFFFF AND EXTCODESIZE GT ISZERO PUSH2 0x1009 JUMPI DUP3 PUSH20 0xFFFFFFFFFFFFFFFFFFFFFFFFFFFFFFFFFFFFFFFF AND PUSH4 0x150B7A02 PUSH2 0xEA0 PUSH2 0xAB3 JUMP JUMPDEST DUP7 DUP6 DUP6 PUSH1 0x40 MLOAD DUP6 PUSH4 0xFFFFFFFF AND PUSH1 0xE0 SHL DUP2 MSTORE PUSH1 0x4 ADD PUSH2 0xEC2 SWAP5 SWAP4 SWAP3 SWAP2 SWAP1 PUSH2 0x1E67 JUMP JUMPDEST PUSH1 0x20 PUSH1 0x40 MLOAD DUP1 DUP4 SUB DUP2 PUSH0 DUP8 GAS CALL SWAP3 POP POP POP DUP1 ISZERO PUSH2 0xEFD JUMPI POP PUSH1 0x40 MLOAD RETURNDATASIZE PUSH1 0x1F NOT PUSH1 0x1F DUP3 ADD AND DUP3 ADD DUP1 PUSH1 0x40 MSTORE POP DUP2 ADD SWAP1 PUSH2 0xEFA SWAP2 SWAP1 PUSH2 0x1EC5 JUMP JUMPDEST PUSH1 0x1 JUMPDEST PUSH2 0xF7E JUMPI RETURNDATASIZE DUP1 PUSH0 DUP2 EQ PUSH2 0xF2B JUMPI PUSH1 0x40 MLOAD SWAP2 POP PUSH1 0x1F NOT PUSH1 0x3F RETURNDATASIZE ADD AND DUP3 ADD PUSH1 0x40 MSTORE RETURNDATASIZE DUP3 MSTORE RETURNDATASIZE PUSH0 PUSH1 0x20 DUP5 ADD RETURNDATACOPY PUSH2 0xF30 JUMP JUMPDEST PUSH1 0x60 SWAP2 POP JUMPDEST POP PUSH0 DUP2 MLOAD SUB PUSH2 0xF76 JUMPI DUP4 PUSH1 0x40 MLOAD PUSH32 0x64A0AE9200000000000000000000000000000000000000000000000000000000 DUP2 MSTORE PUSH1 0x4 ADD PUSH2 0xF6D SWAP2 SWAP1 PUSH2 0x18D4 JUMP JUMPDEST PUSH1 0x40 MLOAD DUP1 SWAP2 SUB SWAP1 REVERT JUMPDEST DUP1 MLOAD DUP2 PUSH1 0x20 ADD REVERT JUMPDEST PUSH4 0x150B7A02 PUSH1 0xE0 SHL PUSH28 0xFFFFFFFFFFFFFFFFFFFFFFFFFFFFFFFFFFFFFFFFFFFFFFFFFFFFFFFF NOT AND DUP2 PUSH28 0xFFFFFFFFFFFFFFFFFFFFFFFFFFFFFFFFFFFFFFFFFFFFFFFFFFFFFFFF NOT AND EQ PUSH2 0x1007 JUMPI DUP4 PUSH1 0x40 MLOAD PUSH32 0x64A0AE9200000000000000000000000000000000000000000000000000000000 DUP2 MSTORE PUSH1 0x4 ADD PUSH2 0xFFE SWAP2 SWAP1 PUSH2 0x18D4 JUMP JUMPDEST PUSH1 0x40 MLOAD DUP1 SWAP2 SUB SWAP1 REVERT JUMPDEST POP JUMPDEST POP POP POP POP JUMP JUMPDEST PUSH1 0x60 PUSH1 0x40 MLOAD DUP1 PUSH1 0x20 ADD PUSH1 0x40 MSTORE DUP1 PUSH0 DUP2 MSTORE POP SWAP1 POP SWAP1 JUMP JUMPDEST PUSH1 0x60 PUSH0 PUSH1 0x1 PUSH2 0x1033 DUP5 PUSH2 0x13C5 JUMP JUMPDEST ADD SWAP1 POP PUSH0 DUP2 PUSH8 0xFFFFFFFFFFFFFFFF DUP2 GT ISZERO PUSH2 0x1051 JUMPI PUSH2 0x1050 PUSH2 0x1A68 JUMP JUMPDEST JUMPDEST PUSH1 0x40 MLOAD SWAP1 DUP1 DUP3 MSTORE DUP1 PUSH1 0x1F ADD PUSH1 0x1F NOT AND PUSH1 0x20 ADD DUP3 ADD PUSH1 0x40 MSTORE DUP1 ISZERO PUSH2 0x1083 JUMPI DUP2 PUSH1 0x20 ADD PUSH1 0x1 DUP3 MUL DUP1 CALLDATASIZE DUP4 CALLDATACOPY DUP1 DUP3 ADD SWAP2 POP POP SWAP1 POP JUMPDEST POP SWAP1 POP PUSH0 DUP3 PUSH1 0x20 ADD DUP3 ADD SWAP1 POP JUMPDEST PUSH1 0x1 ISZERO PUSH2 0x10E4 JUMPI DUP1 DUP1 PUSH1 0x1 SWAP1 SUB SWAP2 POP POP PUSH32 0x3031323334353637383961626364656600000000000000000000000000000000 PUSH1 0xA DUP7 MOD BYTE DUP2 MSTORE8 PUSH1 0xA DUP6 DUP2 PUSH2 0x10D9 JUMPI PUSH2 0x10D8 PUSH2 0x1EF0 JUMP JUMPDEST JUMPDEST DIV SWAP5 POP PUSH0 DUP6 SUB PUSH2 0x1090 JUMPI JUMPDEST DUP2 SWAP4 POP POP POP POP SWAP2 SWAP1 POP JUMP JUMPDEST PUSH0 PUSH1 0x2 PUSH0 DUP4 DUP2 MSTORE PUSH1 0x20 ADD SWAP1 DUP2 MSTORE PUSH1 0x20 ADD PUSH0 KECCAK256 PUSH0 SWAP1 SLOAD SWAP1 PUSH2 0x100 EXP SWAP1 DIV PUSH20 0xFFFFFFFFFFFFFFFFFFFFFFFFFFFFFFFFFFFFFFFF AND SWAP1 POP SWAP2 SWAP1 POP JUMP JUMPDEST DUP1 DUP1 PUSH2 0x1160 JUMPI POP PUSH0 PUSH20 0xFFFFFFFFFFFFFFFFFFFFFFFFFFFFFFFFFFFFFFFF AND DUP3 PUSH20 0xFFFFFFFFFFFFFFFFFFFFFFFFFFFFFFFFFFFFFFFF AND EQ ISZERO JUMPDEST ISZERO PUSH2 0x1292 JUMPI PUSH0 PUSH2 0x116F DUP5 PUSH2 0x9F4 JUMP JUMPDEST SWAP1 POP PUSH0 PUSH20 0xFFFFFFFFFFFFFFFFFFFFFFFFFFFFFFFFFFFFFFFF AND DUP4 PUSH20 0xFFFFFFFFFFFFFFFFFFFFFFFFFFFFFFFFFFFFFFFF AND EQ ISZERO DUP1 ISZERO PUSH2 0x11D9 JUMPI POP DUP3 PUSH20 0xFFFFFFFFFFFFFFFFFFFFFFFFFFFFFFFFFFFFFFFF AND DUP2 PUSH20 0xFFFFFFFFFFFFFFFFFFFFFFFFFFFFFFFFFFFFFFFF AND EQ ISZERO JUMPDEST DUP1 ISZERO PUSH2 0x11EC JUMPI POP PUSH2 0x11EA DUP2 DUP5 PUSH2 0x8FD JUMP JUMPDEST ISZERO JUMPDEST ISZERO PUSH2 0x122E JUMPI DUP3 PUSH1 0x40 MLOAD PUSH32 0xA9FBF51F00000000000000000000000000000000000000000000000000000000 DUP2 MSTORE PUSH1 0x4 ADD PUSH2 0x1225 SWAP2 SWAP1 PUSH2 0x18D4 JUMP JUMPDEST PUSH1 0x40 MLOAD DUP1 SWAP2 SUB SWAP1 REVERT JUMPDEST DUP2 ISZERO PUSH2 0x1290 JUMPI DUP4 DUP6 PUSH20 0xFFFFFFFFFFFFFFFFFFFFFFFFFFFFFFFFFFFFFFFF AND DUP3 PUSH20 0xFFFFFFFFFFFFFFFFFFFFFFFFFFFFFFFFFFFFFFFF AND PUSH32 0x8C5BE1E5EBEC7D5BD14F71427D1E84F3DD0314C0F7B2291E5B200AC8C7C3B925 PUSH1 0x40 MLOAD PUSH1 0x40 MLOAD DUP1 SWAP2 SUB SWAP1 LOG4 JUMPDEST POP JUMPDEST DUP4 PUSH1 0x4 PUSH0 DUP6 DUP2 MSTORE PUSH1 0x20 ADD SWAP1 DUP2 MSTORE PUSH1 0x20 ADD PUSH0 KECCAK256 PUSH0 PUSH2 0x100 EXP DUP2 SLOAD DUP2 PUSH20 0xFFFFFFFFFFFFFFFFFFFFFFFFFFFFFFFFFFFFFFFF MUL NOT AND SWAP1 DUP4 PUSH20 0xFFFFFFFFFFFFFFFFFFFFFFFFFFFFFFFFFFFFFFFF AND MUL OR SWAP1 SSTORE POP POP POP POP POP JUMP JUMPDEST PUSH2 0x12F1 DUP4 DUP4 PUSH2 0x1516 JUMP JUMPDEST PUSH2 0x12FD PUSH0 DUP5 DUP5 DUP5 PUSH2 0xE5D JUMP JUMPDEST POP POP POP JUMP JUMPDEST PUSH2 0x130D DUP4 DUP4 DUP4 PUSH2 0x1609 JUMP JUMPDEST PUSH2 0x13C0 JUMPI PUSH0 PUSH20 0xFFFFFFFFFFFFFFFFFFFFFFFFFFFFFFFFFFFFFFFF AND DUP4 PUSH20 0xFFFFFFFFFFFFFFFFFFFFFFFFFFFFFFFFFFFFFFFF AND SUB PUSH2 0x1381 JUMPI DUP1 PUSH1 0x40 MLOAD PUSH32 0x7E27328900000000000000000000000000000000000000000000000000000000 DUP2 MSTORE PUSH1 0x4 ADD PUSH2 0x1378 SWAP2 SWAP1 PUSH2 0x19DF JUMP JUMPDEST PUSH1 0x40 MLOAD DUP1 SWAP2 SUB SWAP1 REVERT JUMPDEST DUP2 DUP2 PUSH1 0x40 MLOAD PUSH32 0x177E802F00000000000000000000000000000000000000000000000000000000 DUP2 MSTORE PUSH1 0x4 ADD PUSH2 0x13B7 SWAP3 SWAP2 SWAP1 PUSH2 0x1F1D JUMP JUMPDEST PUSH1 0x40 MLOAD DUP1 SWAP2 SUB SWAP1 REVERT JUMPDEST POP POP POP JUMP JUMPDEST PUSH0 DUP1 PUSH0 SWAP1 POP PUSH27 0x184F03E93FF9F4DAA797ED6E38ED64BF6A1F010000000000000000 DUP4 LT PUSH2 0x1421 JUMPI PUSH27 0x184F03E93FF9F4DAA797ED6E38ED64BF6A1F010000000000000000 DUP4 DUP2 PUSH2 0x1417 JUMPI PUSH2 0x1416 PUSH2 0x1EF0 JUMP JUMPDEST JUMPDEST DIV SWAP3 POP PUSH1 0x40 DUP2 ADD SWAP1 POP JUMPDEST PUSH14 0x4EE2D6D415B85ACEF8100000000 DUP4 LT PUSH2 0x145E JUMPI PUSH14 0x4EE2D6D415B85ACEF8100000000 DUP4 DUP2 PUSH2 0x1454 JUMPI PUSH2 0x1453 PUSH2 0x1EF0 JUMP JUMPDEST JUMPDEST DIV SWAP3 POP PUSH1 0x20 DUP2 ADD SWAP1 POP JUMPDEST PUSH7 0x2386F26FC10000 DUP4 LT PUSH2 0x148D JUMPI PUSH7 0x2386F26FC10000 DUP4 DUP2 PUSH2 0x1483 JUMPI PUSH2 0x1482 PUSH2 0x1EF0 JUMP JUMPDEST JUMPDEST DIV SWAP3 POP PUSH1 0x10 DUP2 ADD SWAP1 POP JUMPDEST PUSH4 0x5F5E100 DUP4 LT PUSH2 0x14B6 JUMPI PUSH4 0x5F5E100 DUP4 DUP2 PUSH2 0x14AC JUMPI PUSH2 0x14AB PUSH2 0x1EF0 JUMP JUMPDEST JUMPDEST DIV SWAP3 POP PUSH1 0x8 DUP2 ADD SWAP1 POP JUMPDEST PUSH2 0x2710 DUP4 LT PUSH2 0x14DB JUMPI PUSH2 0x2710 DUP4 DUP2 PUSH2 0x14D1 JUMPI PUSH2 0x14D0 PUSH2 0x1EF0 JUMP JUMPDEST JUMPDEST DIV SWAP3 POP PUSH1 0x4 DUP2 ADD SWAP1 POP JUMPDEST PUSH1 0x64 DUP4 LT PUSH2 0x14FE JUMPI PUSH1 0x64 DUP4 DUP2 PUSH2 0x14F4 JUMPI PUSH2 0x14F3 PUSH2 0x1EF0 JUMP JUMPDEST JUMPDEST DIV SWAP3 POP PUSH1 0x2 DUP2 ADD SWAP1 POP JUMPDEST PUSH1 0xA DUP4 LT PUSH2 0x150D JUMPI PUSH1 0x1 DUP2 ADD SWAP1 POP JUMPDEST DUP1 SWAP2 POP POP SWAP2 SWAP1 POP JUMP JUMPDEST PUSH0 PUSH20 0xFFFFFFFFFFFFFFFFFFFFFFFFFFFFFFFFFFFFFFFF AND DUP3 PUSH20 0xFFFFFFFFFFFFFFFFFFFFFFFFFFFFFFFFFFFFFFFF AND SUB PUSH2 0x1586 JUMPI PUSH0 PUSH1 0x40 MLOAD PUSH32 0x64A0AE9200000000000000000000000000000000000000000000000000000000 DUP2 MSTORE PUSH1 0x4 ADD PUSH2 0x157D SWAP2 SWAP1 PUSH2 0x18D4 JUMP JUMPDEST PUSH1 0x40 MLOAD DUP1 SWAP2 SUB SWAP1 REVERT JUMPDEST PUSH0 PUSH2 0x1592 DUP4 DUP4 PUSH0 PUSH2 0xAE9 JUMP JUMPDEST SWAP1 POP PUSH0 PUSH20 0xFFFFFFFFFFFFFFFFFFFFFFFFFFFFFFFFFFFFFFFF AND DUP2 PUSH20 0xFFFFFFFFFFFFFFFFFFFFFFFFFFFFFFFFFFFFFFFF AND EQ PUSH2 0x1604 JUMPI PUSH0 PUSH1 0x40 MLOAD PUSH32 0x73C6AC6E00000000000000000000000000000000000000000000000000000000 DUP2 MSTORE PUSH1 0x4 ADD PUSH2 0x15FB SWAP2 SWAP1 PUSH2 0x18D4 JUMP JUMPDEST PUSH1 0x40 MLOAD DUP1 SWAP2 SUB SWAP1 REVERT JUMPDEST POP POP POP JUMP JUMPDEST PUSH0 DUP1 PUSH20 0xFFFFFFFFFFFFFFFFFFFFFFFFFFFFFFFFFFFFFFFF AND DUP4 PUSH20 0xFFFFFFFFFFFFFFFFFFFFFFFFFFFFFFFFFFFFFFFF AND EQ ISZERO DUP1 ISZERO PUSH2 0x16C0 JUMPI POP DUP3 PUSH20 0xFFFFFFFFFFFFFFFFFFFFFFFFFFFFFFFFFFFFFFFF AND DUP5 PUSH20 0xFFFFFFFFFFFFFFFFFFFFFFFFFFFFFFFFFFFFFFFF AND EQ DUP1 PUSH2 0x1681 JUMPI POP PUSH2 0x1680 DUP5 DUP5 PUSH2 0x8FD JUMP JUMPDEST JUMPDEST DUP1 PUSH2 0x16BF JUMPI POP DUP3 PUSH20 0xFFFFFFFFFFFFFFFFFFFFFFFFFFFFFFFFFFFFFFFF AND PUSH2 0x16A7 DUP4 PUSH2 0xA7A JUMP JUMPDEST PUSH20 0xFFFFFFFFFFFFFFFFFFFFFFFFFFFFFFFFFFFFFFFF AND EQ JUMPDEST JUMPDEST SWAP1 POP SWAP4 SWAP3 POP POP POP JUMP JUMPDEST PUSH0 PUSH1 0x40 MLOAD SWAP1 POP SWAP1 JUMP JUMPDEST PUSH0 DUP1 REVERT JUMPDEST PUSH0 DUP1 REVERT JUMPDEST PUSH0 PUSH32 0xFFFFFFFF00000000000000000000000000000000000000000000000000000000 DUP3 AND SWAP1 POP SWAP2 SWAP1 POP JUMP JUMPDEST PUSH2 0x170E DUP2 PUSH2 0x16DA JUMP JUMPDEST DUP2 EQ PUSH2 0x1718 JUMPI PUSH0 DUP1 REVERT JUMPDEST POP JUMP JUMPDEST PUSH0 DUP2 CALLDATALOAD SWAP1 POP PUSH2 0x1729 DUP2 PUSH2 0x1705 JUMP JUMPDEST SWAP3 SWAP2 POP POP JUMP JUMPDEST PUSH0 PUSH1 0x20 DUP3 DUP5 SUB SLT ISZERO PUSH2 0x1744 JUMPI PUSH2 0x1743 PUSH2 0x16D2 JUMP JUMPDEST JUMPDEST PUSH0 PUSH2 0x1751 DUP5 DUP3 DUP6 ADD PUSH2 0x171B JUMP JUMPDEST SWAP2 POP POP SWAP3 SWAP2 POP POP JUMP JUMPDEST PUSH0 DUP2 ISZERO ISZERO SWAP1 POP SWAP2 SWAP1 POP JUMP JUMPDEST PUSH2 0x176E DUP2 PUSH2 0x175A JUMP JUMPDEST DUP3 MSTORE POP POP JUMP JUMPDEST PUSH0 PUSH1 0x20 DUP3 ADD SWAP1 POP PUSH2 0x1787 PUSH0 DUP4 ADD DUP5 PUSH2 0x1765 JUMP JUMPDEST SWAP3 SWAP2 POP POP JUMP JUMPDEST PUSH0 DUP2 MLOAD SWAP1 POP SWAP2 SWAP1 POP JUMP JUMPDEST PUSH0 DUP3 DUP3 MSTORE PUSH1 0x20 DUP3 ADD SWAP1 POP SWAP3 SWAP2 POP POP JUMP JUMPDEST PUSH0 JUMPDEST DUP4 DUP2 LT ISZERO PUSH2 0x17C4 JUMPI DUP1 DUP3 ADD MLOAD DUP2 DUP5 ADD MSTORE PUSH1 0x20 DUP2 ADD SWAP1 POP PUSH2 0x17A9 JUMP JUMPDEST PUSH0 DUP5 DUP5 ADD MSTORE POP POP POP POP JUMP JUMPDEST PUSH0 PUSH1 0x1F NOT PUSH1 0x1F DUP4 ADD AND SWAP1 POP SWAP2 SWAP1 POP JUMP JUMPDEST PUSH0 PUSH2 0x17E9 DUP3 PUSH2 0x178D JUMP JUMPDEST PUSH2 0x17F3 DUP2 DUP6 PUSH2 0x1797 JUMP JUMPDEST SWAP4 POP PUSH2 0x1803 DUP2 DUP6 PUSH1 0x20 DUP7 ADD PUSH2 0x17A7 JUMP JUMPDEST PUSH2 0x180C DUP2 PUSH2 0x17CF JUMP JUMPDEST DUP5 ADD SWAP2 POP POP SWAP3 SWAP2 POP POP JUMP JUMPDEST PUSH0 PUSH1 0x20 DUP3 ADD SWAP1 POP DUP2 DUP2 SUB PUSH0 DUP4 ADD MSTORE PUSH2 0x182F DUP2 DUP5 PUSH2 0x17DF JUMP JUMPDEST SWAP1 POP SWAP3 SWAP2 POP POP JUMP JUMPDEST PUSH0 DUP2 SWAP1 POP SWAP2 SWAP1 POP JUMP JUMPDEST PUSH2 0x1849 DUP2 PUSH2 0x1837 JUMP JUMPDEST DUP2 EQ PUSH2 0x1853 JUMPI PUSH0 DUP1 REVERT JUMPDEST POP JUMP JUMPDEST PUSH0 DUP2 CALLDATALOAD SWAP1 POP PUSH2 0x1864 DUP2 PUSH2 0x1840 JUMP JUMPDEST SWAP3 SWAP2 POP POP JUMP JUMPDEST PUSH0 PUSH1 0x20 DUP3 DUP5 SUB SLT ISZERO PUSH2 0x187F JUMPI PUSH2 0x187E PUSH2 0x16D2 JUMP JUMPDEST JUMPDEST PUSH0 PUSH2 0x188C DUP5 DUP3 DUP6 ADD PUSH2 0x1856 JUMP JUMPDEST SWAP2 POP POP SWAP3 SWAP2 POP POP JUMP JUMPDEST PUSH0 PUSH20 0xFFFFFFFFFFFFFFFFFFFFFFFFFFFFFFFFFFFFFFFF DUP3 AND SWAP1 POP SWAP2 SWAP1 POP JUMP JUMPDEST PUSH0 PUSH2 0x18BE DUP3 PUSH2 0x1895 JUMP JUMPDEST SWAP1 POP SWAP2 SWAP1 POP JUMP JUMPDEST PUSH2 0x18CE DUP2 PUSH2 0x18B4 JUMP JUMPDEST DUP3 MSTORE POP POP JUMP JUMPDEST PUSH0 PUSH1 0x20 DUP3 ADD SWAP1 POP PUSH2 0x18E7 PUSH0 DUP4 ADD DUP5 PUSH2 0x18C5 JUMP JUMPDEST SWAP3 SWAP2 POP POP JUMP JUMPDEST PUSH2 0x18F6 DUP2 PUSH2 0x18B4 JUMP JUMPDEST DUP2 EQ PUSH2 0x1900 JUMPI PUSH0 DUP1 REVERT JUMPDEST POP JUMP JUMPDEST PUSH0 DUP2 CALLDATALOAD SWAP1 POP PUSH2 0x1911 DUP2 PUSH2 0x18ED JUMP JUMPDEST SWAP3 SWAP2 POP POP JUMP JUMPDEST PUSH0 DUP1 PUSH1 0x40 DUP4 DUP6 SUB SLT ISZERO PUSH2 0x192D JUMPI PUSH2 0x192C PUSH2 0x16D2 JUMP JUMPDEST JUMPDEST PUSH0 PUSH2 0x193A DUP6 DUP3 DUP7 ADD PUSH2 0x1903 JUMP JUMPDEST SWAP3 POP POP PUSH1 0x20 PUSH2 0x194B DUP6 DUP3 DUP7 ADD PUSH2 0x1856 JUMP JUMPDEST SWAP2 POP POP SWAP3 POP SWAP3 SWAP1 POP JUMP JUMPDEST PUSH0 DUP1 PUSH0 PUSH1 0x60 DUP5 DUP7 SUB SLT ISZERO PUSH2 0x196C JUMPI PUSH2 0x196B PUSH2 0x16D2 JUMP JUMPDEST JUMPDEST PUSH0 PUSH2 0x1979 DUP7 DUP3 DUP8 ADD PUSH2 0x1903 JUMP JUMPDEST SWAP4 POP POP PUSH1 0x20 PUSH2 0x198A DUP7 DUP3 DUP8 ADD PUSH2 0x1903 JUMP JUMPDEST SWAP3 POP POP PUSH1 0x40 PUSH2 0x199B DUP7 DUP3 DUP8 ADD PUSH2 0x1856 JUMP JUMPDEST SWAP2 POP POP SWAP3 POP SWAP3 POP SWAP3 JUMP JUMPDEST PUSH0 PUSH1 0x20 DUP3 DUP5 SUB SLT ISZERO PUSH2 0x19BA JUMPI PUSH2 0x19B9 PUSH2 0x16D2 JUMP JUMPDEST JUMPDEST PUSH0 PUSH2 0x19C7 DUP5 DUP3 DUP6 ADD PUSH2 0x1903 JUMP JUMPDEST SWAP2 POP POP SWAP3 SWAP2 POP POP JUMP JUMPDEST PUSH2 0x19D9 DUP2 PUSH2 0x1837 JUMP JUMPDEST DUP3 MSTORE POP POP JUMP JUMPDEST PUSH0 PUSH1 0x20 DUP3 ADD SWAP1 POP PUSH2 0x19F2 PUSH0 DUP4 ADD DUP5 PUSH2 0x19D0 JUMP JUMPDEST SWAP3 SWAP2 POP POP JUMP JUMPDEST PUSH2 0x1A01 DUP2 PUSH2 0x175A JUMP JUMPDEST DUP2 EQ PUSH2 0x1A0B JUMPI PUSH0 DUP1 REVERT JUMPDEST POP JUMP JUMPDEST PUSH0 DUP2 CALLDATALOAD SWAP1 POP PUSH2 0x1A1C DUP2 PUSH2 0x19F8 JUMP JUMPDEST SWAP3 SWAP2 POP POP JUMP JUMPDEST PUSH0 DUP1 PUSH1 0x40 DUP4 DUP6 SUB SLT ISZERO PUSH2 0x1A38 JUMPI PUSH2 0x1A37 PUSH2 0x16D2 JUMP JUMPDEST JUMPDEST PUSH0 PUSH2 0x1A45 DUP6 DUP3 DUP7 ADD PUSH2 0x1903 JUMP JUMPDEST SWAP3 POP POP PUSH1 0x20 PUSH2 0x1A56 DUP6 DUP3 DUP7 ADD PUSH2 0x1A0E JUMP JUMPDEST SWAP2 POP POP SWAP3 POP SWAP3 SWAP1 POP JUMP JUMPDEST PUSH0 DUP1 REVERT JUMPDEST PUSH0 DUP1 REVERT JUMPDEST PUSH32 0x4E487B7100000000000000000000000000000000000000000000000000000000 PUSH0 MSTORE PUSH1 0x41 PUSH1 0x4 MSTORE PUSH1 0x24 PUSH0 REVERT JUMPDEST PUSH2 0x1A9E DUP3 PUSH2 0x17CF JUMP JUMPDEST DUP2 ADD DUP2 DUP2 LT PUSH8 0xFFFFFFFFFFFFFFFF DUP3 GT OR ISZERO PUSH2 0x1ABD JUMPI PUSH2 0x1ABC PUSH2 0x1A68 JUMP JUMPDEST JUMPDEST DUP1 PUSH1 0x40 MSTORE POP POP POP JUMP JUMPDEST PUSH0 PUSH2 0x1ACF PUSH2 0x16C9 JUMP JUMPDEST SWAP1 POP PUSH2 0x1ADB DUP3 DUP3 PUSH2 0x1A95 JUMP JUMPDEST SWAP2 SWAP1 POP JUMP JUMPDEST PUSH0 PUSH8 0xFFFFFFFFFFFFFFFF DUP3 GT ISZERO PUSH2 0x1AFA JUMPI PUSH2 0x1AF9 PUSH2 0x1A68 JUMP JUMPDEST JUMPDEST PUSH2 0x1B03 DUP3 PUSH2 0x17CF JUMP JUMPDEST SWAP1 POP PUSH1 0x20 DUP2 ADD SWAP1 POP SWAP2 SWAP1 POP JUMP JUMPDEST DUP3 DUP2 DUP4 CALLDATACOPY PUSH0 DUP4 DUP4 ADD MSTORE POP POP POP JUMP JUMPDEST PUSH0 PUSH2 0x1B30 PUSH2 0x1B2B DUP5 PUSH2 0x1AE0 JUMP JUMPDEST PUSH2 0x1AC6 JUMP JUMPDEST SWAP1 POP DUP3 DUP2 MSTORE PUSH1 0x20 DUP2 ADD DUP5 DUP5 DUP5 ADD GT ISZERO PUSH2 0x1B4C JUMPI PUSH2 0x1B4B PUSH2 0x1A64 JUMP JUMPDEST JUMPDEST PUSH2 0x1B57 DUP5 DUP3 DUP6 PUSH2 0x1B10 JUMP JUMPDEST POP SWAP4 SWAP3 POP POP POP JUMP JUMPDEST PUSH0 DUP3 PUSH1 0x1F DUP4 ADD SLT PUSH2 0x1B73 JUMPI PUSH2 0x1B72 PUSH2 0x1A60 JUMP JUMPDEST JUMPDEST DUP2 CALLDATALOAD PUSH2 0x1B83 DUP5 DUP3 PUSH1 0x20 DUP7 ADD PUSH2 0x1B1E JUMP JUMPDEST SWAP2 POP POP SWAP3 SWAP2 POP POP JUMP JUMPDEST PUSH0 DUP1 PUSH0 DUP1 PUSH1 0x80 DUP6 DUP8 SUB SLT ISZERO PUSH2 0x1BA4 JUMPI PUSH2 0x1BA3 PUSH2 0x16D2 JUMP JUMPDEST JUMPDEST PUSH0 PUSH2 0x1BB1 DUP8 DUP3 DUP9 ADD PUSH2 0x1903 JUMP JUMPDEST SWAP5 POP POP PUSH1 0x20 PUSH2 0x1BC2 DUP8 DUP3 DUP9 ADD PUSH2 0x1903 JUMP JUMPDEST SWAP4 POP POP PUSH1 0x40 PUSH2 0x1BD3 DUP8 DUP3 DUP9 ADD PUSH2 0x1856 JUMP JUMPDEST SWAP3 POP POP PUSH1 0x60 DUP6 ADD CALLDATALOAD PUSH8 0xFFFFFFFFFFFFFFFF DUP2 GT ISZERO PUSH2 0x1BF4 JUMPI PUSH2 0x1BF3 PUSH2 0x16D6 JUMP JUMPDEST JUMPDEST PUSH2 0x1C00 DUP8 DUP3 DUP9 ADD PUSH2 0x1B5F JUMP JUMPDEST SWAP2 POP POP SWAP3 SWAP6 SWAP2 SWAP5 POP SWAP3 POP JUMP JUMPDEST PUSH0 DUP1 PUSH1 0x40 DUP4 DUP6 SUB SLT ISZERO PUSH2 0x1C22 JUMPI PUSH2 0x1C21 PUSH2 0x16D2 JUMP JUMPDEST JUMPDEST PUSH0 PUSH2 0x1C2F DUP6 DUP3 DUP7 ADD PUSH2 0x1903 JUMP JUMPDEST SWAP3 POP POP PUSH1 0x20 PUSH2 0x1C40 DUP6 DUP3 DUP7 ADD PUSH2 0x1903 JUMP JUMPDEST SWAP2 POP POP SWAP3 POP SWAP3 SWAP1 POP JUMP JUMPDEST PUSH32 0x4E487B7100000000000000000000000000000000000000000000000000000000 PUSH0 MSTORE PUSH1 0x22 PUSH1 0x4 MSTORE PUSH1 0x24 PUSH0 REVERT JUMPDEST PUSH0 PUSH1 0x2 DUP3 DIV SWAP1 POP PUSH1 0x1 DUP3 AND DUP1 PUSH2 0x1C8E JUMPI PUSH1 0x7F DUP3 AND SWAP2 POP JUMPDEST PUSH1 0x20 DUP3 LT DUP2 SUB PUSH2 0x1CA1 JUMPI PUSH2 0x1CA0 PUSH2 0x1C4A JUMP JUMPDEST JUMPDEST POP SWAP2 SWAP1 POP JUMP JUMPDEST PUSH32 0x496E73756666696369656E742066756E647320746F206D696E74000000000000 PUSH0 DUP3 ADD MSTORE POP JUMP JUMPDEST PUSH0 PUSH2 0x1CDB PUSH1 0x1A DUP4 PUSH2 0x1797 JUMP JUMPDEST SWAP2 POP PUSH2 0x1CE6 DUP3 PUSH2 0x1CA7 JUMP JUMPDEST PUSH1 0x20 DUP3 ADD SWAP1 POP SWAP2 SWAP1 POP JUMP JUMPDEST PUSH0 PUSH1 0x20 DUP3 ADD SWAP1 POP DUP2 DUP2 SUB PUSH0 DUP4 ADD MSTORE PUSH2 0x1D08 DUP2 PUSH2 0x1CCF JUMP JUMPDEST SWAP1 POP SWAP2 SWAP1 POP JUMP JUMPDEST PUSH32 0x4E487B7100000000000000000000000000000000000000000000000000000000 PUSH0 MSTORE PUSH1 0x11 PUSH1 0x4 MSTORE PUSH1 0x24 PUSH0 REVERT JUMPDEST PUSH0 PUSH2 0x1D46 DUP3 PUSH2 0x1837 JUMP JUMPDEST SWAP2 POP PUSH32 0xFFFFFFFFFFFFFFFFFFFFFFFFFFFFFFFFFFFFFFFFFFFFFFFFFFFFFFFFFFFFFFFF DUP3 SUB PUSH2 0x1D78 JUMPI PUSH2 0x1D77 PUSH2 0x1D0F JUMP JUMPDEST JUMPDEST PUSH1 0x1 DUP3 ADD SWAP1 POP SWAP2 SWAP1 POP JUMP JUMPDEST PUSH0 PUSH1 0x60 DUP3 ADD SWAP1 POP PUSH2 0x1D96 PUSH0 DUP4 ADD DUP7 PUSH2 0x18C5 JUMP JUMPDEST PUSH2 0x1DA3 PUSH1 0x20 DUP4 ADD DUP6 PUSH2 0x19D0 JUMP JUMPDEST PUSH2 0x1DB0 PUSH1 0x40 DUP4 ADD DUP5 PUSH2 0x18C5 JUMP JUMPDEST SWAP5 SWAP4 POP POP POP POP JUMP JUMPDEST PUSH0 DUP2 SWAP1 POP SWAP3 SWAP2 POP POP JUMP JUMPDEST PUSH0 PUSH2 0x1DCC DUP3 PUSH2 0x178D JUMP JUMPDEST PUSH2 0x1DD6 DUP2 DUP6 PUSH2 0x1DB8 JUMP JUMPDEST SWAP4 POP PUSH2 0x1DE6 DUP2 DUP6 PUSH1 0x20 DUP7 ADD PUSH2 0x17A7 JUMP JUMPDEST DUP1 DUP5 ADD SWAP2 POP POP SWAP3 SWAP2 POP POP JUMP JUMPDEST PUSH0 PUSH2 0x1DFD DUP3 DUP6 PUSH2 0x1DC2 JUMP JUMPDEST SWAP2 POP PUSH2 0x1E09 DUP3 DUP5 PUSH2 0x1DC2 JUMP JUMPDEST SWAP2 POP DUP2 SWAP1 POP SWAP4 SWAP3 POP POP POP JUMP JUMPDEST PUSH0 DUP2 MLOAD SWAP1 POP SWAP2 SWAP1 POP JUMP JUMPDEST PUSH0 DUP3 DUP3 MSTORE PUSH1 0x20 DUP3 ADD SWAP1 POP SWAP3 SWAP2 POP POP JUMP JUMPDEST PUSH0 PUSH2 0x1E39 DUP3 PUSH2 0x1E15 JUMP JUMPDEST PUSH2 0x1E43 DUP2 DUP6 PUSH2 0x1E1F JUMP JUMPDEST SWAP4 POP PUSH2 0x1E53 DUP2 DUP6 PUSH1 0x20 DUP7 ADD PUSH2 0x17A7 JUMP JUMPDEST PUSH2 0x1E5C DUP2 PUSH2 0x17CF JUMP JUMPDEST DUP5 ADD SWAP2 POP POP SWAP3 SWAP2 POP POP JUMP JUMPDEST PUSH0 PUSH1 0x80 DUP3 ADD SWAP1 POP PUSH2 0x1E7A PUSH0 DUP4 ADD DUP8 PUSH2 0x18C5 JUMP JUMPDEST PUSH2 0x1E87 PUSH1 0x20 DUP4 ADD DUP7 PUSH2 0x18C5 JUMP JUMPDEST PUSH2 0x1E94 PUSH1 0x40 DUP4 ADD DUP6 PUSH2 0x19D0 JUMP JUMPDEST DUP2 DUP2 SUB PUSH1 0x60 DUP4 ADD MSTORE PUSH2 0x1EA6 DUP2 DUP5 PUSH2 0x1E2F JUMP JUMPDEST SWAP1 POP SWAP6 SWAP5 POP POP POP POP POP JUMP JUMPDEST PUSH0 DUP2 MLOAD SWAP1 POP PUSH2 0x1EBF DUP2 PUSH2 0x1705 JUMP JUMPDEST SWAP3 SWAP2 POP POP JUMP JUMPDEST PUSH0 PUSH1 0x20 DUP3 DUP5 SUB SLT ISZERO PUSH2 0x1EDA JUMPI PUSH2 0x1ED9 PUSH2 0x16D2 JUMP JUMPDEST JUMPDEST PUSH0 PUSH2 0x1EE7 DUP5 DUP3 DUP6 ADD PUSH2 0x1EB1 JUMP JUMPDEST SWAP2 POP POP SWAP3 SWAP2 POP POP JUMP JUMPDEST PUSH32 0x4E487B7100000000000000000000000000000000000000000000000000000000 PUSH0 MSTORE PUSH1 0x12 PUSH1 0x4 MSTORE PUSH1 0x24 PUSH0 REVERT JUMPDEST PUSH0 PUSH1 0x40 DUP3 ADD SWAP1 POP PUSH2 0x1F30 PUSH0 DUP4 ADD DUP6 PUSH2 0x18C5 JUMP JUMPDEST PUSH2 0x1F3D PUSH1 0x20 DUP4 ADD DUP5 PUSH2 0x19D0 JUMP JUMPDEST SWAP4 SWAP3 POP POP POP JUMP INVALID LOG2 PUSH5 0x6970667358 0x22 SLT KECCAK256 SWAP12 PUSH21 0x3CABA318AA9BB5CA22F236253884960259D045F9B5 PUSH27 0xFC42D0511D65337D64736F6C634300081600330000000000000000 "
		},
		"gasEstimates": {
			"creation": {
				"codeDepositCost": "1611600",
				"executionCost": "infinite",
				"totalCost": "infinite"
			},
			"external": {
				"approve(address,uint256)": "infinite",
				"balanceOf(address)": "infinite",
				"getApproved(uint256)": "infinite",
				"isApprovedForAll(address,address)": "infinite",
				"listingPrice()": "2469",
				"mint()": "infinite",
				"name()": "infinite",
				"nextTokenId()": "2470",
				"ownerOf(uint256)": "infinite",
				"safeTransferFrom(address,address,uint256)": "infinite",
				"safeTransferFrom(address,address,uint256,bytes)": "infinite",
				"setApprovalForAll(address,bool)": "infinite",
				"supportsInterface(bytes4)": "787",
				"symbol()": "infinite",
				"tokenURI(uint256)": "infinite",
				"transferFrom(address,address,uint256)": "infinite"
			}
		},
		"methodIdentifiers": {
			"approve(address,uint256)": "095ea7b3",
			"balanceOf(address)": "70a08231",
			"getApproved(uint256)": "081812fc",
			"isApprovedForAll(address,address)": "e985e9c5",
			"listingPrice()": "c78f19f9",
			"mint()": "1249c58b",
			"name()": "06fdde03",
			"nextTokenId()": "75794a3c",
			"ownerOf(uint256)": "6352211e",
			"safeTransferFrom(address,address,uint256)": "42842e0e",
			"safeTransferFrom(address,address,uint256,bytes)": "b88d4fde",
			"setApprovalForAll(address,bool)": "a22cb465",
			"supportsInterface(bytes4)": "01ffc9a7",
			"symbol()": "95d89b41",
			"tokenURI(uint256)": "c87b56dd",
			"transferFrom(address,address,uint256)": "23b872dd"
		}
	},
	"abi": [
		{
			"inputs": [],
			"stateMutability": "nonpayable",
			"type": "constructor"
		},
		{
			"inputs": [
				{
					"internalType": "address",
					"name": "sender",
					"type": "address"
				},
				{
					"internalType": "uint256",
					"name": "tokenId",
					"type": "uint256"
				},
				{
					"internalType": "address",
					"name": "owner",
					"type": "address"
				}
			],
			"name": "ERC721IncorrectOwner",
			"type": "error"
		},
		{
			"inputs": [
				{
					"internalType": "address",
					"name": "operator",
					"type": "address"
				},
				{
					"internalType": "uint256",
					"name": "tokenId",
					"type": "uint256"
				}
			],
			"name": "ERC721InsufficientApproval",
			"type": "error"
		},
		{
			"inputs": [
				{
					"internalType": "address",
					"name": "approver",
					"type": "address"
				}
			],
			"name": "ERC721InvalidApprover",
			"type": "error"
		},
		{
			"inputs": [
				{
					"internalType": "address",
					"name": "operator",
					"type": "address"
				}
			],
			"name": "ERC721InvalidOperator",
			"type": "error"
		},
		{
			"inputs": [
				{
					"internalType": "address",
					"name": "owner",
					"type": "address"
				}
			],
			"name": "ERC721InvalidOwner",
			"type": "error"
		},
		{
			"inputs": [
				{
					"internalType": "address",
					"name": "receiver",
					"type": "address"
				}
			],
			"name": "ERC721InvalidReceiver",
			"type": "error"
		},
		{
			"inputs": [
				{
					"internalType": "address",
					"name": "sender",
					"type": "address"
				}
			],
			"name": "ERC721InvalidSender",
			"type": "error"
		},
		{
			"inputs": [
				{
					"internalType": "uint256",
					"name": "tokenId",
					"type": "uint256"
				}
			],
			"name": "ERC721NonexistentToken",
			"type": "error"
		},
		{
			"anonymous": false,
			"inputs": [
				{
					"indexed": true,
					"internalType": "address",
					"name": "owner",
					"type": "address"
				},
				{
					"indexed": true,
					"internalType": "address",
					"name": "approved",
					"type": "address"
				},
				{
					"indexed": true,
					"internalType": "uint256",
					"name": "tokenId",
					"type": "uint256"
				}
			],
			"name": "Approval",
			"type": "event"
		},
		{
			"anonymous": false,
			"inputs": [
				{
					"indexed": true,
					"internalType": "address",
					"name": "owner",
					"type": "address"
				},
				{
					"indexed": true,
					"internalType": "address",
					"name": "operator",
					"type": "address"
				},
				{
					"indexed": false,
					"internalType": "bool",
					"name": "approved",
					"type": "bool"
				}
			],
			"name": "ApprovalForAll",
			"type": "event"
		},
		{
			"anonymous": false,
			"inputs": [
				{
					"indexed": true,
					"internalType": "address",
					"name": "from",
					"type": "address"
				},
				{
					"indexed": true,
					"internalType": "address",
					"name": "to",
					"type": "address"
				},
				{
					"indexed": true,
					"internalType": "uint256",
					"name": "tokenId",
					"type": "uint256"
				}
			],
			"name": "Transfer",
			"type": "event"
		},
		{
			"inputs": [
				{
					"internalType": "address",
					"name": "to",
					"type": "address"
				},
				{
					"internalType": "uint256",
					"name": "tokenId",
					"type": "uint256"
				}
			],
			"name": "approve",
			"outputs": [],
			"stateMutability": "nonpayable",
			"type": "function"
		},
		{
			"inputs": [
				{
					"internalType": "address",
					"name": "owner",
					"type": "address"
				}
			],
			"name": "balanceOf",
			"outputs": [
				{
					"internalType": "uint256",
					"name": "",
					"type": "uint256"
				}
			],
			"stateMutability": "view",
			"type": "function"
		},
		{
			"inputs": [
				{
					"internalType": "uint256",
					"name": "tokenId",
					"type": "uint256"
				}
			],
			"name": "getApproved",
			"outputs": [
				{
					"internalType": "address",
					"name": "",
					"type": "address"
				}
			],
			"stateMutability": "view",
			"type": "function"
		},
		{
			"inputs": [
				{
					"internalType": "address",
					"name": "owner",
					"type": "address"
				},
				{
					"internalType": "address",
					"name": "operator",
					"type": "address"
				}
			],
			"name": "isApprovedForAll",
			"outputs": [
				{
					"internalType": "bool",
					"name": "",
					"type": "bool"
				}
			],
			"stateMutability": "view",
			"type": "function"
		},
		{
			"inputs": [],
			"name": "listingPrice",
			"outputs": [
				{
					"internalType": "uint256",
					"name": "",
					"type": "uint256"
				}
			],
			"stateMutability": "view",
			"type": "function"
		},
		{
			"inputs": [],
			"name": "mint",
			"outputs": [],
			"stateMutability": "payable",
			"type": "function"
		},
		{
			"inputs": [],
			"name": "name",
			"outputs": [
				{
					"internalType": "string",
					"name": "",
					"type": "string"
				}
			],
			"stateMutability": "view",
			"type": "function"
		},
		{
			"inputs": [],
			"name": "nextTokenId",
			"outputs": [
				{
					"internalType": "uint256",
					"name": "",
					"type": "uint256"
				}
			],
			"stateMutability": "view",
			"type": "function"
		},
		{
			"inputs": [
				{
					"internalType": "uint256",
					"name": "tokenId",
					"type": "uint256"
				}
			],
			"name": "ownerOf",
			"outputs": [
				{
					"internalType": "address",
					"name": "",
					"type": "address"
				}
			],
			"stateMutability": "view",
			"type": "function"
		},
		{
			"inputs": [
				{
					"internalType": "address",
					"name": "from",
					"type": "address"
				},
				{
					"internalType": "address",
					"name": "to",
					"type": "address"
				},
				{
					"internalType": "uint256",
					"name": "tokenId",
					"type": "uint256"
				}
			],
			"name": "safeTransferFrom",
			"outputs": [],
			"stateMutability": "nonpayable",
			"type": "function"
		},
		{
			"inputs": [
				{
					"internalType": "address",
					"name": "from",
					"type": "address"
				},
				{
					"internalType": "address",
					"name": "to",
					"type": "address"
				},
				{
					"internalType": "uint256",
					"name": "tokenId",
					"type": "uint256"
				},
				{
					"internalType": "bytes",
					"name": "data",
					"type": "bytes"
				}
			],
			"name": "safeTransferFrom",
			"outputs": [],
			"stateMutability": "nonpayable",
			"type": "function"
		},
		{
			"inputs": [
				{
					"internalType": "address",
					"name": "operator",
					"type": "address"
				},
				{
					"internalType": "bool",
					"name": "approved",
					"type": "bool"
				}
			],
			"name": "setApprovalForAll",
			"outputs": [],
			"stateMutability": "nonpayable",
			"type": "function"
		},
		{
			"inputs": [
				{
					"internalType": "bytes4",
					"name": "interfaceId",
					"type": "bytes4"
				}
			],
			"name": "supportsInterface",
			"outputs": [
				{
					"internalType": "bool",
					"name": "",
					"type": "bool"
				}
			],
			"stateMutability": "view",
			"type": "function"
		},
		{
			"inputs": [],
			"name": "symbol",
			"outputs": [
				{
					"internalType": "string",
					"name": "",
					"type": "string"
				}
			],
			"stateMutability": "view",
			"type": "function"
		},
		{
			"inputs": [
				{
					"internalType": "uint256",
					"name": "tokenId",
					"type": "uint256"
				}
			],
			"name": "tokenURI",
			"outputs": [
				{
					"internalType": "string",
					"name": "",
					"type": "string"
				}
			],
			"stateMutability": "view",
			"type": "function"
		},
		{
			"inputs": [
				{
					"internalType": "address",
					"name": "from",
					"type": "address"
				},
				{
					"internalType": "address",
					"name": "to",
					"type": "address"
				},
				{
					"internalType": "uint256",
					"name": "tokenId",
					"type": "uint256"
				}
			],
			"name": "transferFrom",
			"outputs": [],
			"stateMutability": "nonpayable",
			"type": "function"
		}
	]
}