{
  "_format": "hh-sol-artifact-1",
  "contractName": "NFTMarketplace",
  "sourceName": "contracts/NftMarketplace.sol",
  "abi": [
    {
      "inputs": [],
      "stateMutability": "nonpayable",
      "type": "constructor"
    },
    {
      "inputs": [
        {
          "internalType": "address",
          "name": "sender",
          "type": "address"
        },
        {
          "internalType": "uint256",
          "name": "tokenId",
          "type": "uint256"
        },
        {
          "internalType": "address",
          "name": "owner",
          "type": "address"
        }
      ],
      "name": "ERC721IncorrectOwner",
      "type": "error"
    },
    {
      "inputs": [
        {
          "internalType": "address",
          "name": "operator",
          "type": "address"
        },
        {
          "internalType": "uint256",
          "name": "tokenId",
          "type": "uint256"
        }
      ],
      "name": "ERC721InsufficientApproval",
      "type": "error"
    },
    {
      "inputs": [
        {
          "internalType": "address",
          "name": "approver",
          "type": "address"
        }
      ],
      "name": "ERC721InvalidApprover",
      "type": "error"
    },
    {
      "inputs": [
        {
          "internalType": "address",
          "name": "operator",
          "type": "address"
        }
      ],
      "name": "ERC721InvalidOperator",
      "type": "error"
    },
    {
      "inputs": [
        {
          "internalType": "address",
          "name": "owner",
          "type": "address"
        }
      ],
      "name": "ERC721InvalidOwner",
      "type": "error"
    },
    {
      "inputs": [
        {
          "internalType": "address",
          "name": "receiver",
          "type": "address"
        }
      ],
      "name": "ERC721InvalidReceiver",
      "type": "error"
    },
    {
      "inputs": [
        {
          "internalType": "address",
          "name": "sender",
          "type": "address"
        }
      ],
      "name": "ERC721InvalidSender",
      "type": "error"
    },
    {
      "inputs": [
        {
          "internalType": "uint256",
          "name": "tokenId",
          "type": "uint256"
        }
      ],
      "name": "ERC721NonexistentToken",
      "type": "error"
    },
    {
      "anonymous": false,
      "inputs": [
        {
          "indexed": true,
          "internalType": "address",
          "name": "owner",
          "type": "address"
        },
        {
          "indexed": true,
          "internalType": "address",
          "name": "approved",
          "type": "address"
        },
        {
          "indexed": true,
          "internalType": "uint256",
          "name": "tokenId",
          "type": "uint256"
        }
      ],
      "name": "Approval",
      "type": "event"
    },
    {
      "anonymous": false,
      "inputs": [
        {
          "indexed": true,
          "internalType": "address",
          "name": "owner",
          "type": "address"
        },
        {
          "indexed": true,
          "internalType": "address",
          "name": "operator",
          "type": "address"
        },
        {
          "indexed": false,
          "internalType": "bool",
          "name": "approved",
          "type": "bool"
        }
      ],
      "name": "ApprovalForAll",
      "type": "event"
    },
    {
      "anonymous": false,
      "inputs": [
        {
          "indexed": true,
          "internalType": "address",
          "name": "from",
          "type": "address"
        },
        {
          "indexed": true,
          "internalType": "address",
          "name": "to",
          "type": "address"
        },
        {
          "indexed": true,
          "internalType": "uint256",
          "name": "tokenId",
          "type": "uint256"
        }
      ],
      "name": "Transfer",
      "type": "event"
    },
    {
      "inputs": [
        {
          "internalType": "address",
          "name": "to",
          "type": "address"
        },
        {
          "internalType": "uint256",
          "name": "tokenId",
          "type": "uint256"
        }
      ],
      "name": "approve",
      "outputs": [],
      "stateMutability": "nonpayable",
      "type": "function"
    },
    {
      "inputs": [
        {
          "internalType": "address",
          "name": "owner",
          "type": "address"
        }
      ],
      "name": "balanceOf",
      "outputs": [
        {
          "internalType": "uint256",
          "name": "",
          "type": "uint256"
        }
      ],
      "stateMutability": "view",
      "type": "function"
    },
    {
      "inputs": [
        {
          "internalType": "uint256",
          "name": "tokenId",
          "type": "uint256"
        }
      ],
      "name": "getApproved",
      "outputs": [
        {
          "internalType": "address",
          "name": "",
          "type": "address"
        }
      ],
      "stateMutability": "view",
      "type": "function"
    },
    {
      "inputs": [
        {
          "internalType": "address",
          "name": "owner",
          "type": "address"
        },
        {
          "internalType": "address",
          "name": "operator",
          "type": "address"
        }
      ],
      "name": "isApprovedForAll",
      "outputs": [
        {
          "internalType": "bool",
          "name": "",
          "type": "bool"
        }
      ],
      "stateMutability": "view",
      "type": "function"
    },
    {
      "inputs": [],
      "name": "listingPrice",
      "outputs": [
        {
          "internalType": "uint256",
          "name": "",
          "type": "uint256"
        }
      ],
      "stateMutability": "view",
      "type": "function"
    },
    {
      "inputs": [],
      "name": "mint",
      "outputs": [],
      "stateMutability": "payable",
      "type": "function"
    },
    {
      "inputs": [],
      "name": "name",
      "outputs": [
        {
          "internalType": "string",
          "name": "",
          "type": "string"
        }
      ],
      "stateMutability": "view",
      "type": "function"
    },
    {
      "inputs": [],
      "name": "nextTokenId",
      "outputs": [
        {
          "internalType": "uint256",
          "name": "",
          "type": "uint256"
        }
      ],
      "stateMutability": "view",
      "type": "function"
    },
    {
      "inputs": [
        {
          "internalType": "uint256",
          "name": "tokenId",
          "type": "uint256"
        }
      ],
      "name": "ownerOf",
      "outputs": [
        {
          "internalType": "address",
          "name": "",
          "type": "address"
        }
      ],
      "stateMutability": "view",
      "type": "function"
    },
    {
      "inputs": [
        {
          "internalType": "address",
          "name": "from",
          "type": "address"
        },
        {
          "internalType": "address",
          "name": "to",
          "type": "address"
        },
        {
          "internalType": "uint256",
          "name": "tokenId",
          "type": "uint256"
        }
      ],
      "name": "safeTransferFrom",
      "outputs": [],
      "stateMutability": "nonpayable",
      "type": "function"
    },
    {
      "inputs": [
        {
          "internalType": "address",
          "name": "from",
          "type": "address"
        },
        {
          "internalType": "address",
          "name": "to",
          "type": "address"
        },
        {
          "internalType": "uint256",
          "name": "tokenId",
          "type": "uint256"
        },
        {
          "internalType": "bytes",
          "name": "data",
          "type": "bytes"
        }
      ],
      "name": "safeTransferFrom",
      "outputs": [],
      "stateMutability": "nonpayable",
      "type": "function"
    },
    {
      "inputs": [
        {
          "internalType": "address",
          "name": "operator",
          "type": "address"
        },
        {
          "internalType": "bool",
          "name": "approved",
          "type": "bool"
        }
      ],
      "name": "setApprovalForAll",
      "outputs": [],
      "stateMutability": "nonpayable",
      "type": "function"
    },
    {
      "inputs": [
        {
          "internalType": "bytes4",
          "name": "interfaceId",
          "type": "bytes4"
        }
      ],
      "name": "supportsInterface",
      "outputs": [
        {
          "internalType": "bool",
          "name": "",
          "type": "bool"
        }
      ],
      "stateMutability": "view",
      "type": "function"
    },
    {
      "inputs": [],
      "name": "symbol",
      "outputs": [
        {
          "internalType": "string",
          "name": "",
          "type": "string"
        }
      ],
      "stateMutability": "view",
      "type": "function"
    },
    {
      "inputs": [
        {
          "internalType": "uint256",
          "name": "tokenId",
          "type": "uint256"
        }
      ],
      "name": "tokenURI",
      "outputs": [
        {
          "internalType": "string",
          "name": "",
          "type": "string"
        }
      ],
      "stateMutability": "view",
      "type": "function"
    },
    {
      "inputs": [
        {
          "internalType": "address",
          "name": "from",
          "type": "address"
        },
        {
          "internalType": "address",
          "name": "to",
          "type": "address"
        },
        {
          "internalType": "uint256",
          "name": "tokenId",
          "type": "uint256"
        }
      ],
      "name": "transferFrom",
      "outputs": [],
      "stateMutability": "nonpayable",
      "type": "function"
    }
  ],
  "bytecode": "0x608060405264e8d4a510006007553480156200001a57600080fd5b506040518060400160405280600781526020017f596f75724e4654000000000000000000000000000000000000000000000000008152506040518060400160405280600481526020017f594e46540000000000000000000000000000000000000000000000000000000081525081600090816200009891906200032d565b508060019081620000aa91906200032d565b50505062000414565b600081519050919050565b7f4e487b7100000000000000000000000000000000000000000000000000000000600052604160045260246000fd5b7f4e487b7100000000000000000000000000000000000000000000000000000000600052602260045260246000fd5b600060028204905060018216806200013557607f821691505b6020821081036200014b576200014a620000ed565b5b50919050565b60008190508160005260206000209050919050565b60006020601f8301049050919050565b600082821b905092915050565b600060088302620001b57fffffffffffffffffffffffffffffffffffffffffffffffffffffffffffffffff8262000176565b620001c1868362000176565b95508019841693508086168417925050509392505050565b6000819050919050565b6000819050919050565b60006200020e620002086200020284620001d9565b620001e3565b620001d9565b9050919050565b6000819050919050565b6200022a83620001ed565b62000242620002398262000215565b84845462000183565b825550505050565b600090565b620002596200024a565b620002668184846200021f565b505050565b5b818110156200028e57620002826000826200024f565b6001810190506200026c565b5050565b601f821115620002dd57620002a78162000151565b620002b28462000166565b81016020851015620002c2578190505b620002da620002d18562000166565b8301826200026b565b50505b505050565b600082821c905092915050565b60006200030260001984600802620002e2565b1980831691505092915050565b60006200031d8383620002ef565b9150826002028217905092915050565b6200033882620000b3565b67ffffffffffffffff811115620003545762000353620000be565b5b6200036082546200011c565b6200036d82828562000292565b600060209050601f831160018114620003a5576000841562000390578287015190505b6200039c85826200030f565b8655506200040c565b601f198416620003b58662000151565b60005b82811015620003df57848901518255600182019150602085019450602081019050620003b8565b86831015620003ff5784890151620003fb601f891682620002ef565b8355505b6001600288020188555050505b505050505050565b61203680620004246000396000f3fe6080604052600436106100f35760003560e01c806370a082311161008a578063b88d4fde11610059578063b88d4fde1461031b578063c78f19f914610344578063c87b56dd1461036f578063e985e9c5146103ac576100f3565b806370a082311461025f57806375794a3c1461029c57806395d89b41146102c7578063a22cb465146102f2576100f3565b80631249c58b116100c65780631249c58b146101c657806323b872dd146101d057806342842e0e146101f95780636352211e14610222576100f3565b806301ffc9a7146100f857806306fdde0314610135578063081812fc14610160578063095ea7b31461019d575b600080fd5b34801561010457600080fd5b5061011f600480360381019061011a919061179d565b6103e9565b60405161012c91906117e5565b60405180910390f35b34801561014157600080fd5b5061014a6104cb565b6040516101579190611890565b60405180910390f35b34801561016c57600080fd5b50610187600480360381019061018291906118e8565b61055d565b6040516101949190611956565b60405180910390f35b3480156101a957600080fd5b506101c460048036038101906101bf919061199d565b610579565b005b6101ce61058f565b005b3480156101dc57600080fd5b506101f760048036038101906101f291906119dd565b6105fa565b005b34801561020557600080fd5b50610220600480360381019061021b91906119dd565b6106fc565b005b34801561022e57600080fd5b50610249600480360381019061024491906118e8565b61071c565b6040516102569190611956565b60405180910390f35b34801561026b57600080fd5b5061028660048036038101906102819190611a30565b61072e565b6040516102939190611a6c565b60405180910390f35b3480156102a857600080fd5b506102b16107e8565b6040516102be9190611a6c565b60405180910390f35b3480156102d357600080fd5b506102dc6107ee565b6040516102e99190611890565b60405180910390f35b3480156102fe57600080fd5b5061031960048036038101906103149190611ab3565b610880565b005b34801561032757600080fd5b50610342600480360381019061033d9190611c28565b610896565b005b34801561035057600080fd5b506103596108b3565b6040516103669190611a6c565b60405180910390f35b34801561037b57600080fd5b50610396600480360381019061039191906118e8565b6108b9565b6040516103a39190611890565b60405180910390f35b3480156103b857600080fd5b506103d360048036038101906103ce9190611cab565b610922565b6040516103e091906117e5565b60405180910390f35b60007f80ac58cd000000000000000000000000000000000000000000000000000000007bffffffffffffffffffffffffffffffffffffffffffffffffffffffff1916827bffffffffffffffffffffffffffffffffffffffffffffffffffffffff191614806104b457507f5b5e139f000000000000000000000000000000000000000000000000000000007bffffffffffffffffffffffffffffffffffffffffffffffffffffffff1916827bffffffffffffffffffffffffffffffffffffffffffffffffffffffff1916145b806104c457506104c3826109b6565b5b9050919050565b6060600080546104da90611d1a565b80601f016020809104026020016040519081016040528092919081815260200182805461050690611d1a565b80156105535780601f1061052857610100808354040283529160200191610553565b820191906000526020600020905b81548152906001019060200180831161053657829003601f168201915b5050505050905090565b600061056882610a20565b5061057282610aa8565b9050919050565b61058b8282610586610ae5565b610aed565b5050565b6007543410156105d4576040517f08c379a00000000000000000000000000000000000000000000000000000000081526004016105cb90611d97565b60405180910390fd5b6105e033600654610aff565b600660008154809291906105f390611de6565b9190505550565b600073ffffffffffffffffffffffffffffffffffffffff168273ffffffffffffffffffffffffffffffffffffffff160361066c5760006040517f64a0ae920000000000000000000000000000000000000000000000000000000081526004016106639190611956565b60405180910390fd5b6000610680838361067b610ae5565b610b1d565b90508373ffffffffffffffffffffffffffffffffffffffff168173ffffffffffffffffffffffffffffffffffffffff16146106f6578382826040517f64283d7b0000000000000000000000000000000000000000000000000000000081526004016106ed93929190611e2e565b60405180910390fd5b50505050565b61071783838360405180602001604052806000815250610896565b505050565b600061072782610a20565b9050919050565b60008073ffffffffffffffffffffffffffffffffffffffff168273ffffffffffffffffffffffffffffffffffffffff16036107a15760006040517f89c62b640000000000000000000000000000000000000000000000000000000081526004016107989190611956565b60405180910390fd5b600360008373ffffffffffffffffffffffffffffffffffffffff1673ffffffffffffffffffffffffffffffffffffffff168152602001908152602001600020549050919050565b60065481565b6060600180546107fd90611d1a565b80601f016020809104026020016040519081016040528092919081815260200182805461082990611d1a565b80156108765780601f1061084b57610100808354040283529160200191610876565b820191906000526020600020905b81548152906001019060200180831161085957829003601f168201915b5050505050905090565b61089261088b610ae5565b8383610d37565b5050565b6108a18484846105fa565b6108ad84848484610ea6565b50505050565b60075481565b60606108c482610a20565b5060006108cf61105d565b905060008151116108ef576040518060200160405280600081525061091a565b806108f984611074565b60405160200161090a929190611ea1565b6040516020818303038152906040525b915050919050565b6000600560008473ffffffffffffffffffffffffffffffffffffffff1673ffffffffffffffffffffffffffffffffffffffff16815260200190815260200160002060008373ffffffffffffffffffffffffffffffffffffffff1673ffffffffffffffffffffffffffffffffffffffff16815260200190815260200160002060009054906101000a900460ff16905092915050565b60007f01ffc9a7000000000000000000000000000000000000000000000000000000007bffffffffffffffffffffffffffffffffffffffffffffffffffffffff1916827bffffffffffffffffffffffffffffffffffffffffffffffffffffffff1916149050919050565b600080610a2c83611142565b9050600073ffffffffffffffffffffffffffffffffffffffff168173ffffffffffffffffffffffffffffffffffffffff1603610a9f57826040517f7e273289000000000000000000000000000000000000000000000000000000008152600401610a969190611a6c565b60405180910390fd5b80915050919050565b60006004600083815260200190815260200160002060009054906101000a900473ffffffffffffffffffffffffffffffffffffffff169050919050565b600033905090565b610afa838383600161117f565b505050565b610b19828260405180602001604052806000815250611344565b5050565b600080610b2984611142565b9050600073ffffffffffffffffffffffffffffffffffffffff168373ffffffffffffffffffffffffffffffffffffffff1614610b6b57610b6a818486611360565b5b600073ffffffffffffffffffffffffffffffffffffffff168173ffffffffffffffffffffffffffffffffffffffff1614610bfc57610bad60008560008061117f565b6001600360008373ffffffffffffffffffffffffffffffffffffffff1673ffffffffffffffffffffffffffffffffffffffff168152602001908152602001600020600082825403925050819055505b600073ffffffffffffffffffffffffffffffffffffffff168573ffffffffffffffffffffffffffffffffffffffff1614610c7f576001600360008773ffffffffffffffffffffffffffffffffffffffff1673ffffffffffffffffffffffffffffffffffffffff168152602001908152602001600020600082825401925050819055505b846002600086815260200190815260200160002060006101000a81548173ffffffffffffffffffffffffffffffffffffffff021916908373ffffffffffffffffffffffffffffffffffffffff160217905550838573ffffffffffffffffffffffffffffffffffffffff168273ffffffffffffffffffffffffffffffffffffffff167fddf252ad1be2c89b69c2b068fc378daa952ba7f163c4a11628f55a4df523b3ef60405160405180910390a4809150509392505050565b600073ffffffffffffffffffffffffffffffffffffffff168273ffffffffffffffffffffffffffffffffffffffff1603610da857816040517f5b08ba18000000000000000000000000000000000000000000000000000000008152600401610d9f9190611956565b60405180910390fd5b80600560008573ffffffffffffffffffffffffffffffffffffffff1673ffffffffffffffffffffffffffffffffffffffff16815260200190815260200160002060008473ffffffffffffffffffffffffffffffffffffffff1673ffffffffffffffffffffffffffffffffffffffff16815260200190815260200160002060006101000a81548160ff0219169083151502179055508173ffffffffffffffffffffffffffffffffffffffff168373ffffffffffffffffffffffffffffffffffffffff167f17307eab39ab6107e8899845ad3d59bd9653f200f220920489ca2b5937696c3183604051610e9991906117e5565b60405180910390a3505050565b60008373ffffffffffffffffffffffffffffffffffffffff163b1115611057578273ffffffffffffffffffffffffffffffffffffffff1663150b7a02610eea610ae5565b8685856040518563ffffffff1660e01b8152600401610f0c9493929190611f1a565b6020604051808303816000875af1925050508015610f4857506040513d601f19601f82011682018060405250810190610f459190611f7b565b60015b610fcc573d8060008114610f78576040519150601f19603f3d011682016040523d82523d6000602084013e610f7d565b606091505b506000815103610fc457836040517f64a0ae92000000000000000000000000000000000000000000000000000000008152600401610fbb9190611956565b60405180910390fd5b805181602001fd5b63150b7a0260e01b7bffffffffffffffffffffffffffffffffffffffffffffffffffffffff1916817bffffffffffffffffffffffffffffffffffffffffffffffffffffffff19161461105557836040517f64a0ae9200000000000000000000000000000000000000000000000000000000815260040161104c9190611956565b60405180910390fd5b505b50505050565b606060405180602001604052806000815250905090565b60606000600161108384611424565b01905060008167ffffffffffffffff8111156110a2576110a1611afd565b5b6040519080825280601f01601f1916602001820160405280156110d45781602001600182028036833780820191505090505b509050600082602001820190505b600115611137578080600190039150507f3031323334353637383961626364656600000000000000000000000000000000600a86061a8153600a858161112b5761112a611fa8565b5b049450600085036110e2575b819350505050919050565b60006002600083815260200190815260200160002060009054906101000a900473ffffffffffffffffffffffffffffffffffffffff169050919050565b80806111b85750600073ffffffffffffffffffffffffffffffffffffffff168273ffffffffffffffffffffffffffffffffffffffff1614155b156112ec5760006111c884610a20565b9050600073ffffffffffffffffffffffffffffffffffffffff168373ffffffffffffffffffffffffffffffffffffffff161415801561123357508273ffffffffffffffffffffffffffffffffffffffff168173ffffffffffffffffffffffffffffffffffffffff1614155b801561124657506112448184610922565b155b1561128857826040517fa9fbf51f00000000000000000000000000000000000000000000000000000000815260040161127f9190611956565b60405180910390fd5b81156112ea57838573ffffffffffffffffffffffffffffffffffffffff168273ffffffffffffffffffffffffffffffffffffffff167f8c5be1e5ebec7d5bd14f71427d1e84f3dd0314c0f7b2291e5b200ac8c7c3b92560405160405180910390a45b505b836004600085815260200190815260200160002060006101000a81548173ffffffffffffffffffffffffffffffffffffffff021916908373ffffffffffffffffffffffffffffffffffffffff16021790555050505050565b61134e8383611577565b61135b6000848484610ea6565b505050565b61136b838383611670565b61141f57600073ffffffffffffffffffffffffffffffffffffffff168373ffffffffffffffffffffffffffffffffffffffff16036113e057806040517f7e2732890000000000000000000000000000000000000000000000000000000081526004016113d79190611a6c565b60405180910390fd5b81816040517f177e802f000000000000000000000000000000000000000000000000000000008152600401611416929190611fd7565b60405180910390fd5b505050565b600080600090507a184f03e93ff9f4daa797ed6e38ed64bf6a1f0100000000000000008310611482577a184f03e93ff9f4daa797ed6e38ed64bf6a1f010000000000000000838161147857611477611fa8565b5b0492506040810190505b6d04ee2d6d415b85acef810000000083106114bf576d04ee2d6d415b85acef810000000083816114b5576114b4611fa8565b5b0492506020810190505b662386f26fc1000083106114ee57662386f26fc1000083816114e4576114e3611fa8565b5b0492506010810190505b6305f5e1008310611517576305f5e100838161150d5761150c611fa8565b5b0492506008810190505b612710831061153c57612710838161153257611531611fa8565b5b0492506004810190505b6064831061155f576064838161155557611554611fa8565b5b0492506002810190505b600a831061156e576001810190505b80915050919050565b600073ffffffffffffffffffffffffffffffffffffffff168273ffffffffffffffffffffffffffffffffffffffff16036115e95760006040517f64a0ae920000000000000000000000000000000000000000000000000000000081526004016115e09190611956565b60405180910390fd5b60006115f783836000610b1d565b9050600073ffffffffffffffffffffffffffffffffffffffff168173ffffffffffffffffffffffffffffffffffffffff161461166b5760006040517f73c6ac6e0000000000000000000000000000000000000000000000000000000081526004016116629190611956565b60405180910390fd5b505050565b60008073ffffffffffffffffffffffffffffffffffffffff168373ffffffffffffffffffffffffffffffffffffffff161415801561172857508273ffffffffffffffffffffffffffffffffffffffff168473ffffffffffffffffffffffffffffffffffffffff1614806116e957506116e88484610922565b5b8061172757508273ffffffffffffffffffffffffffffffffffffffff1661170f83610aa8565b73ffffffffffffffffffffffffffffffffffffffff16145b5b90509392505050565b6000604051905090565b600080fd5b600080fd5b60007fffffffff0000000000000000000000000000000000000000000000000000000082169050919050565b61177a81611745565b811461178557600080fd5b50565b60008135905061179781611771565b92915050565b6000602082840312156117b3576117b261173b565b5b60006117c184828501611788565b91505092915050565b60008115159050919050565b6117df816117ca565b82525050565b60006020820190506117fa60008301846117d6565b92915050565b600081519050919050565b600082825260208201905092915050565b60005b8381101561183a57808201518184015260208101905061181f565b60008484015250505050565b6000601f19601f8301169050919050565b600061186282611800565b61186c818561180b565b935061187c81856020860161181c565b61188581611846565b840191505092915050565b600060208201905081810360008301526118aa8184611857565b905092915050565b6000819050919050565b6118c5816118b2565b81146118d057600080fd5b50565b6000813590506118e2816118bc565b92915050565b6000602082840312156118fe576118fd61173b565b5b600061190c848285016118d3565b91505092915050565b600073ffffffffffffffffffffffffffffffffffffffff82169050919050565b600061194082611915565b9050919050565b61195081611935565b82525050565b600060208201905061196b6000830184611947565b92915050565b61197a81611935565b811461198557600080fd5b50565b60008135905061199781611971565b92915050565b600080604083850312156119b4576119b361173b565b5b60006119c285828601611988565b92505060206119d3858286016118d3565b9150509250929050565b6000806000606084860312156119f6576119f561173b565b5b6000611a0486828701611988565b9350506020611a1586828701611988565b9250506040611a26868287016118d3565b9150509250925092565b600060208284031215611a4657611a4561173b565b5b6000611a5484828501611988565b91505092915050565b611a66816118b2565b82525050565b6000602082019050611a816000830184611a5d565b92915050565b611a90816117ca565b8114611a9b57600080fd5b50565b600081359050611aad81611a87565b92915050565b60008060408385031215611aca57611ac961173b565b5b6000611ad885828601611988565b9250506020611ae985828601611a9e565b9150509250929050565b600080fd5b600080fd5b7f4e487b7100000000000000000000000000000000000000000000000000000000600052604160045260246000fd5b611b3582611846565b810181811067ffffffffffffffff82111715611b5457611b53611afd565b5b80604052505050565b6000611b67611731565b9050611b738282611b2c565b919050565b600067ffffffffffffffff821115611b9357611b92611afd565b5b611b9c82611846565b9050602081019050919050565b82818337600083830152505050565b6000611bcb611bc684611b78565b611b5d565b905082815260208101848484011115611be757611be6611af8565b5b611bf2848285611ba9565b509392505050565b600082601f830112611c0f57611c0e611af3565b5b8135611c1f848260208601611bb8565b91505092915050565b60008060008060808587031215611c4257611c4161173b565b5b6000611c5087828801611988565b9450506020611c6187828801611988565b9350506040611c72878288016118d3565b925050606085013567ffffffffffffffff811115611c9357611c92611740565b5b611c9f87828801611bfa565b91505092959194509250565b60008060408385031215611cc257611cc161173b565b5b6000611cd085828601611988565b9250506020611ce185828601611988565b9150509250929050565b7f4e487b7100000000000000000000000000000000000000000000000000000000600052602260045260246000fd5b60006002820490506001821680611d3257607f821691505b602082108103611d4557611d44611ceb565b5b50919050565b7f496e73756666696369656e742066756e647320746f206d696e74000000000000600082015250565b6000611d81601a8361180b565b9150611d8c82611d4b565b602082019050919050565b60006020820190508181036000830152611db081611d74565b9050919050565b7f4e487b7100000000000000000000000000000000000000000000000000000000600052601160045260246000fd5b6000611df1826118b2565b91507fffffffffffffffffffffffffffffffffffffffffffffffffffffffffffffffff8203611e2357611e22611db7565b5b600182019050919050565b6000606082019050611e436000830186611947565b611e506020830185611a5d565b611e5d6040830184611947565b949350505050565b600081905092915050565b6000611e7b82611800565b611e858185611e65565b9350611e9581856020860161181c565b80840191505092915050565b6000611ead8285611e70565b9150611eb98284611e70565b91508190509392505050565b600081519050919050565b600082825260208201905092915050565b6000611eec82611ec5565b611ef68185611ed0565b9350611f0681856020860161181c565b611f0f81611846565b840191505092915050565b6000608082019050611f2f6000830187611947565b611f3c6020830186611947565b611f496040830185611a5d565b8181036060830152611f5b8184611ee1565b905095945050505050565b600081519050611f7581611771565b92915050565b600060208284031215611f9157611f9061173b565b5b6000611f9f84828501611f66565b91505092915050565b7f4e487b7100000000000000000000000000000000000000000000000000000000600052601260045260246000fd5b6000604082019050611fec6000830185611947565b611ff96020830184611a5d565b939250505056fea26469706673582212203080bfa53569ce7e7b74caaa0b2a0a802ac4bb104aa2ecd82e1345dcdb6a5aa664736f6c63430008140033",
  "linkReferences": {},
  "deployedLinkReferences": {}
}